{
  "abi": [
    {
      "inputs": [
        {
          "internalType": "address",
          "name": "_token",
          "type": "address"
        },
        {
          "internalType": "address",
          "name": "_controller",
          "type": "address"
        }
      ],
      "stateMutability": "nonpayable",
      "type": "constructor"
    },
    {
      "anonymous": false,
      "inputs": [
        {
          "indexed": true,
          "internalType": "address",
          "name": "owner",
          "type": "address"
        },
        {
          "indexed": true,
          "internalType": "address",
          "name": "spender",
          "type": "address"
        },
        {
          "indexed": false,
          "internalType": "uint256",
          "name": "value",
          "type": "uint256"
        }
      ],
      "name": "Approval",
      "type": "event"
    },
    {
      "anonymous": false,
      "inputs": [
        {
          "indexed": true,
          "internalType": "address",
          "name": "from",
          "type": "address"
        },
        {
          "indexed": true,
          "internalType": "address",
          "name": "to",
          "type": "address"
        },
        {
          "indexed": false,
          "internalType": "uint256",
          "name": "value",
          "type": "uint256"
        }
      ],
      "name": "Transfer",
      "type": "event"
    },
    {
      "inputs": [],
      "name": "aave",
      "outputs": [
        {
          "internalType": "address",
          "name": "",
          "type": "address"
        }
      ],
      "stateMutability": "view",
      "type": "function"
    },
    {
      "inputs": [],
      "name": "activate",
      "outputs": [],
      "stateMutability": "nonpayable",
      "type": "function"
    },
    {
      "inputs": [
        {
          "internalType": "address",
          "name": "owner",
          "type": "address"
        },
        {
          "internalType": "address",
          "name": "spender",
          "type": "address"
        }
      ],
      "name": "allowance",
      "outputs": [
        {
          "internalType": "uint256",
          "name": "",
          "type": "uint256"
        }
      ],
      "stateMutability": "view",
      "type": "function"
    },
    {
      "inputs": [
        {
          "internalType": "address",
          "name": "spender",
          "type": "address"
        },
        {
          "internalType": "uint256",
          "name": "amount",
          "type": "uint256"
        }
      ],
      "name": "approve",
      "outputs": [
        {
          "internalType": "bool",
          "name": "",
          "type": "bool"
        }
      ],
      "stateMutability": "nonpayable",
      "type": "function"
    },
    {
      "inputs": [],
      "name": "availableToBorrowETH",
      "outputs": [
        {
          "internalType": "uint256",
          "name": "",
          "type": "uint256"
        }
      ],
      "stateMutability": "view",
      "type": "function"
    },
    {
      "inputs": [],
      "name": "availableToBorrowReserve",
      "outputs": [
        {
          "internalType": "uint256",
          "name": "",
          "type": "uint256"
        }
      ],
      "stateMutability": "view",
      "type": "function"
    },
    {
      "inputs": [],
      "name": "balance",
      "outputs": [
        {
          "internalType": "uint256",
          "name": "",
          "type": "uint256"
        }
      ],
      "stateMutability": "view",
      "type": "function"
    },
    {
      "inputs": [
        {
          "internalType": "address",
          "name": "account",
          "type": "address"
        }
      ],
      "name": "balanceOf",
      "outputs": [
        {
          "internalType": "uint256",
          "name": "",
          "type": "uint256"
        }
      ],
      "stateMutability": "view",
      "type": "function"
    },
    {
      "inputs": [],
      "name": "claimInsurance",
      "outputs": [],
      "stateMutability": "nonpayable",
      "type": "function"
    },
    {
      "inputs": [],
      "name": "controller",
      "outputs": [
        {
          "internalType": "address",
          "name": "",
          "type": "address"
        }
      ],
      "stateMutability": "view",
      "type": "function"
    },
    {
      "inputs": [],
      "name": "credit",
      "outputs": [
        {
          "internalType": "uint256",
          "name": "",
          "type": "uint256"
        }
      ],
      "stateMutability": "view",
      "type": "function"
    },
    {
      "inputs": [],
      "name": "debt",
      "outputs": [
        {
          "internalType": "uint256",
          "name": "",
          "type": "uint256"
        }
      ],
      "stateMutability": "view",
      "type": "function"
    },
    {
      "inputs": [
        {
          "internalType": "address",
          "name": "_lp",
          "type": "address"
        }
      ],
      "name": "debtShare",
      "outputs": [
        {
          "internalType": "uint256",
          "name": "",
          "type": "uint256"
        }
      ],
      "stateMutability": "view",
      "type": "function"
    },
    {
      "inputs": [],
      "name": "decimals",
      "outputs": [
        {
          "internalType": "uint8",
          "name": "",
          "type": "uint8"
        }
      ],
      "stateMutability": "view",
      "type": "function"
    },
    {
      "inputs": [
        {
          "internalType": "address",
          "name": "spender",
          "type": "address"
        },
        {
          "internalType": "uint256",
          "name": "subtractedValue",
          "type": "uint256"
        }
      ],
      "name": "decreaseAllowance",
      "outputs": [
        {
          "internalType": "bool",
          "name": "",
          "type": "bool"
        }
      ],
      "stateMutability": "nonpayable",
      "type": "function"
    },
    {
      "inputs": [
        {
          "internalType": "uint256",
          "name": "_amount",
          "type": "uint256"
        }
      ],
      "name": "deposit",
      "outputs": [],
      "stateMutability": "nonpayable",
      "type": "function"
    },
    {
      "inputs": [],
      "name": "depositAll",
      "outputs": [],
      "stateMutability": "nonpayable",
      "type": "function"
    },
    {
      "inputs": [],
      "name": "earn",
      "outputs": [],
      "stateMutability": "nonpayable",
      "type": "function"
    },
    {
      "inputs": [],
      "name": "getAave",
      "outputs": [
        {
          "internalType": "address",
          "name": "",
          "type": "address"
        }
      ],
      "stateMutability": "view",
      "type": "function"
    },
    {
      "inputs": [],
      "name": "getAaveCore",
      "outputs": [
        {
          "internalType": "address",
          "name": "",
          "type": "address"
        }
      ],
      "stateMutability": "view",
      "type": "function"
    },
    {
      "inputs": [],
      "name": "getAaveOracle",
      "outputs": [
        {
          "internalType": "address",
          "name": "",
          "type": "address"
        }
      ],
      "stateMutability": "view",
      "type": "function"
    },
    {
      "inputs": [],
      "name": "getPricePerFullShare",
      "outputs": [
        {
          "internalType": "uint256",
          "name": "",
          "type": "uint256"
        }
      ],
      "stateMutability": "view",
      "type": "function"
    },
    {
      "inputs": [],
      "name": "getReservePrice",
      "outputs": [
        {
          "internalType": "uint256",
          "name": "",
          "type": "uint256"
        }
      ],
      "stateMutability": "view",
      "type": "function"
    },
    {
      "inputs": [
        {
          "internalType": "address",
          "name": "reserve",
          "type": "address"
        }
      ],
      "name": "getReservePriceETH",
      "outputs": [
        {
          "internalType": "uint256",
          "name": "",
          "type": "uint256"
        }
      ],
      "stateMutability": "view",
      "type": "function"
    },
    {
      "inputs": [],
      "name": "getUnderlyingPrice",
      "outputs": [
        {
          "internalType": "uint256",
          "name": "",
          "type": "uint256"
        }
      ],
      "stateMutability": "view",
      "type": "function"
    },
    {
      "inputs": [
        {
          "internalType": "uint256",
          "name": "_amount",
          "type": "uint256"
        }
      ],
      "name": "getUnderlyingPriceETH",
      "outputs": [
        {
          "internalType": "uint256",
          "name": "",
          "type": "uint256"
        }
      ],
      "stateMutability": "view",
      "type": "function"
    },
    {
      "inputs": [],
      "name": "governance",
      "outputs": [
        {
          "internalType": "address",
          "name": "",
          "type": "address"
        }
      ],
      "stateMutability": "view",
      "type": "function"
    },
    {
      "inputs": [
        {
          "internalType": "address",
          "name": "reserve",
          "type": "address"
        },
        {
          "internalType": "uint256",
          "name": "amount",
          "type": "uint256"
        }
      ],
      "name": "harvest",
      "outputs": [],
      "stateMutability": "nonpayable",
      "type": "function"
    },
    {
      "inputs": [],
      "name": "healthFactor",
      "outputs": [
        {
          "internalType": "uint256",
          "name": "",
          "type": "uint256"
        }
      ],
      "stateMutability": "view",
      "type": "function"
    },
    {
      "inputs": [
        {
          "internalType": "address",
          "name": "spender",
          "type": "address"
        },
        {
          "internalType": "uint256",
          "name": "addedValue",
          "type": "uint256"
        }
      ],
      "name": "increaseAllowance",
      "outputs": [
        {
          "internalType": "bool",
          "name": "",
          "type": "bool"
        }
      ],
      "stateMutability": "nonpayable",
      "type": "function"
    },
    {
      "inputs": [],
      "name": "insurance",
      "outputs": [
        {
          "internalType": "uint256",
          "name": "",
          "type": "uint256"
        }
      ],
      "stateMutability": "view",
      "type": "function"
    },
    {
      "inputs": [],
      "name": "locked",
      "outputs": [
        {
          "internalType": "uint256",
          "name": "",
          "type": "uint256"
        }
      ],
      "stateMutability": "view",
      "type": "function"
    },
    {
      "inputs": [],
      "name": "ltv",
      "outputs": [
        {
          "internalType": "uint256",
          "name": "",
          "type": "uint256"
        }
      ],
      "stateMutability": "view",
      "type": "function"
    },
    {
      "inputs": [],
      "name": "max",
      "outputs": [
        {
          "internalType": "uint256",
          "name": "",
          "type": "uint256"
        }
      ],
      "stateMutability": "view",
      "type": "function"
    },
    {
      "inputs": [],
      "name": "maxSafeETH",
      "outputs": [
        {
          "internalType": "uint256",
          "name": "maxBorrowsETH",
          "type": "uint256"
        },
        {
          "internalType": "uint256",
          "name": "totalBorrowsETH",
          "type": "uint256"
        },
        {
          "internalType": "uint256",
          "name": "availableBorrowsETH",
          "type": "uint256"
        }
      ],
      "stateMutability": "view",
      "type": "function"
    },
    {
      "inputs": [],
      "name": "name",
      "outputs": [
        {
          "internalType": "string",
          "name": "",
          "type": "string"
        }
      ],
      "stateMutability": "view",
      "type": "function"
    },
    {
      "inputs": [
        {
          "internalType": "uint256",
          "name": "_amount",
          "type": "uint256"
        }
      ],
      "name": "over",
      "outputs": [
        {
          "internalType": "uint256",
          "name": "",
          "type": "uint256"
        }
      ],
      "stateMutability": "view",
      "type": "function"
    },
    {
      "inputs": [],
      "name": "over",
      "outputs": [
        {
          "internalType": "uint256",
          "name": "",
          "type": "uint256"
        }
      ],
      "stateMutability": "view",
      "type": "function"
    },
    {
      "inputs": [],
      "name": "rebalance",
      "outputs": [],
      "stateMutability": "nonpayable",
      "type": "function"
    },
    {
      "inputs": [
        {
          "internalType": "address",
          "name": "reserve",
          "type": "address"
        },
        {
          "internalType": "uint256",
          "name": "amount",
          "type": "uint256"
        }
      ],
      "name": "repay",
      "outputs": [],
      "stateMutability": "nonpayable",
      "type": "function"
    },
    {
      "inputs": [],
      "name": "repayAll",
      "outputs": [],
      "stateMutability": "nonpayable",
      "type": "function"
    },
    {
      "inputs": [],
      "name": "reserve",
      "outputs": [
        {
          "internalType": "address",
          "name": "",
          "type": "address"
        }
      ],
      "stateMutability": "view",
      "type": "function"
    },
    {
      "inputs": [
        {
          "internalType": "address",
          "name": "_controller",
          "type": "address"
        }
      ],
      "name": "setController",
      "outputs": [],
      "stateMutability": "nonpayable",
      "type": "function"
    },
    {
      "inputs": [
        {
          "internalType": "address",
          "name": "_governance",
          "type": "address"
        }
      ],
      "name": "setGovernance",
      "outputs": [],
      "stateMutability": "nonpayable",
      "type": "function"
    },
    {
      "inputs": [
        {
          "internalType": "uint256",
          "name": "_hf",
          "type": "uint256"
        }
      ],
      "name": "setHealthFactor",
      "outputs": [],
      "stateMutability": "nonpayable",
      "type": "function"
    },
    {
      "inputs": [],
      "name": "shouldBorrow",
      "outputs": [
        {
          "internalType": "bool",
          "name": "",
          "type": "bool"
        }
      ],
      "stateMutability": "view",
      "type": "function"
    },
    {
      "inputs": [],
      "name": "shouldRebalance",
      "outputs": [
        {
          "internalType": "bool",
          "name": "",
          "type": "bool"
        }
      ],
      "stateMutability": "view",
      "type": "function"
    },
    {
      "inputs": [],
      "name": "symbol",
      "outputs": [
        {
          "internalType": "string",
          "name": "",
          "type": "string"
        }
      ],
      "stateMutability": "view",
      "type": "function"
    },
    {
      "inputs": [],
      "name": "token",
      "outputs": [
        {
          "internalType": "contract IERC20",
          "name": "",
          "type": "address"
        }
      ],
      "stateMutability": "view",
      "type": "function"
    },
    {
      "inputs": [],
      "name": "totalSupply",
      "outputs": [
        {
          "internalType": "uint256",
          "name": "",
          "type": "uint256"
        }
      ],
      "stateMutability": "view",
      "type": "function"
    },
    {
      "inputs": [
        {
          "internalType": "address",
          "name": "recipient",
          "type": "address"
        },
        {
          "internalType": "uint256",
          "name": "amount",
          "type": "uint256"
        }
      ],
      "name": "transfer",
      "outputs": [
        {
          "internalType": "bool",
          "name": "",
          "type": "bool"
        }
      ],
      "stateMutability": "nonpayable",
      "type": "function"
    },
    {
      "inputs": [
        {
          "internalType": "address",
          "name": "sender",
          "type": "address"
        },
        {
          "internalType": "address",
          "name": "recipient",
          "type": "address"
        },
        {
          "internalType": "uint256",
          "name": "amount",
          "type": "uint256"
        }
      ],
      "name": "transferFrom",
      "outputs": [
        {
          "internalType": "bool",
          "name": "",
          "type": "bool"
        }
      ],
      "stateMutability": "nonpayable",
      "type": "function"
    },
    {
      "inputs": [],
      "name": "underlying",
      "outputs": [
        {
          "internalType": "address",
          "name": "",
          "type": "address"
        }
      ],
      "stateMutability": "view",
      "type": "function"
    },
    {
      "inputs": [
        {
          "internalType": "uint256",
          "name": "_shares",
          "type": "uint256"
        }
      ],
      "name": "withdraw",
      "outputs": [],
      "stateMutability": "nonpayable",
      "type": "function"
    },
    {
      "inputs": [],
      "name": "withdrawAll",
      "outputs": [],
      "stateMutability": "nonpayable",
      "type": "function"
    }
  ],
  "bytecode": "608060405260046009556041600a556064600b553480156200002057600080fd5b5060405162002e2438038062002e24833981810160405260408110156200004657600080fd5b508051602090910151604080516306fdde0360e01b815290516001600160a01b038416916306fdde03916004808301926000929190829003018186803b1580156200009057600080fd5b505afa158015620000a5573d6000803e3d6000fd5b505050506040513d6000823e601f3d908101601f191682016040526020811015620000cf57600080fd5b8101908080516040519392919084640100000000821115620000f057600080fd5b9083019060208201858111156200010657600080fd5b82516401000000008111828201881017156200012157600080fd5b82525081516020918201929091019080838360005b838110156200015057818101518382015260200162000136565b50505050905090810190601f1680156200017e5780820380516001836020036101000a031916815260200191505b5060405250505060405160200180806503cb2b0b937160d51b81525060060182805190602001908083835b60208310620001ca5780518252601f199092019160209182019101620001a9565b6001836020036101000a038019825116818451168082178552505050505050905001915050604051602081830303815290604052826001600160a01b03166395d89b416040518163ffffffff1660e01b815260040160006040518083038186803b1580156200023857600080fd5b505afa1580156200024d573d6000803e3d6000fd5b505050506040513d6000823e601f3d908101601f1916820160405260208110156200027757600080fd5b81019080805160405193929190846401000000008211156200029857600080fd5b908301906020820185811115620002ae57600080fd5b8251640100000000811182820188101715620002c957600080fd5b82525081516020918201929091019080838360005b83811015620002f8578181015183820152602001620002de565b50505050905090810190601f168015620003265780820380516001836020036101000a031916815260200191505b506040525050506040516020018080607960f81b81525060010182805190602001908083835b602083106200036d5780518252601f1990920191602091820191016200034c565b6001836020036101000a0380198251168184511680821785525050505050509050019150506040516020818303038152906040528160039080519060200190620003b9929190620004c3565b508051620003cf906004906020840190620004c3565b50506005805460ff19166012179055506040805163313ce56760e01b8152905162000463916001600160a01b0385169163313ce56791600480820192602092909190829003018186803b1580156200042657600080fd5b505afa1580156200043b573d6000803e3d6000fd5b505050506040513d60208110156200045257600080fd5b50516001600160e01b03620004ad16565b60058054610100600160a81b0319166101006001600160a01b039485160217905560068054336001600160a01b031991821617909155600780549091169190921617905562000568565b6005805460ff191660ff92909216919091179055565b828054600181600116156101000203166002900490600052602060002090601f016020900481019282601f106200050657805160ff191683800117855562000536565b8280016001018555821562000536579182015b828111156200053657825182559160200191906001019062000519565b506200054492915062000548565b5090565b6200056591905b808211156200054457600081556001016200054f565b90565b6128ac80620005786000396000f3fe608060405234801561001057600080fd5b506004361061035d5760003560e01c8063819faf7b116101d3578063b69ef8a811610104578063de5f6268116100a2578063f7c1ec771161007c578063f7c1ec7714610812578063f82ce27d1461081a578063fa3ae6dc14610822578063fc0c546a1461082a5761035d565b8063de5f6268146107fa578063f072232214610802578063f77c47911461080a5761035d565b8063cf309012116100de578063cf3090121461079f578063d389800f146107a7578063dd62ed3e146107af578063dd90a791146107dd5761035d565b8063b69ef8a814610772578063b6b55f251461077a578063cd3293de146107975761035d565b8063a06d083c11610171578063a9059cbb1161014b578063a9059cbb14610710578063ab033ea91461073c578063ae2c1d5f14610762578063b040785a1461076a5761035d565b8063a06d083c146106d4578063a457c2d7146106dc578063a75ac608146107085761035d565b8063929c8849116101ad578063929c88491461069657806392eefe9b1461069e57806395d89b41146106c45780639f287e16146106cc5761035d565b8063819faf7b1461067e578063853828b61461068657806389cf32041461068e5761035d565b806331111708116102ad5780636ad4e2511161024b57806370a082311161022557806370a082311461064057806377c7b8fc146106665780637d7c2a1c1461066e5780637eaef50c146106765761035d565b80636ad4e251146106135780636f307dc3146106305780636fb49d73146106385761035d565b8063468f02d211610287578063468f02d2146105b95780635aa6e675146105c157806362f5548d146105e55780636ac5db191461060b5761035d565b80633111170814610552578063313ce5671461056f578063395093511461058d5761035d565b806318160ddd1161031a57806322867d78116102f457806322867d78146104ad57806323b872dd146104d95780632851e2e01461050f5780632e1a7d4d146105355761035d565b806318160ddd146104955780631b93e5b01461049d57806322841f01146104a55761035d565b8063018ee9b71461036257806306fdde0314610390578063095ea7b31461040d5780630dca59c11461044d5780630f15f4c01461046757806311dddca41461046f575b600080fd5b61038e6004803603604081101561037857600080fd5b506001600160a01b038135169060200135610832565b005b6103986108f3565b6040805160208082528351818301528351919283929083019185019080838360005b838110156103d25781810151838201526020016103ba565b50505050905090810190601f1680156103ff5780820380516001836020036101000a031916815260200191505b509250505060405180910390f35b6104396004803603604081101561042357600080fd5b506001600160a01b03813516906020013561098a565b604080519115158252519081900360200190f35b6104556109a8565b60408051918252519081900360200190f35b61038e610ab9565b6104556004803603602081101561048557600080fd5b50356001600160a01b0316610b3e565b610455610bd1565b610439610bd7565b610455610be8565b61038e600480360360408110156104c357600080fd5b506001600160a01b038135169060200135610bee565b610439600480360360608110156104ef57600080fd5b506001600160a01b03813581169160208101359091169060400135610d93565b6104556004803603602081101561052557600080fd5b50356001600160a01b0316610e20565b61038e6004803603602081101561054b57600080fd5b5035610e4d565b61038e6004803603602081101561056857600080fd5b5035610ea3565b610577610ef5565b6040805160ff9092168252519081900360200190f35b610439600480360360408110156105a357600080fd5b506001600160a01b038135169060200135610efe565b610455610f52565b6105c9610f69565b604080516001600160a01b039092168252519081900360200190f35b6105ed610f78565b60408051938452602084019290925282820152519081900360600190f35b610455611050565b6104556004803603602081101561062957600080fd5b5035611056565b6105c961118d565b61045561120e565b6104556004803603602081101561065657600080fd5b50356001600160a01b0316611214565b61045561122f565b61038e611250565b61045561125c565b6105c961126c565b61038e611284565b610455611295565b61045561129b565b61038e600480360360208110156106b457600080fd5b50356001600160a01b0316611315565b610398611384565b6105c96113e5565b610455611434565b610439600480360360408110156106f257600080fd5b506001600160a01b03813516906020013561147f565b61038e6114ed565b6104396004803603604081101561072657600080fd5b506001600160a01b038135169060200135611567565b61038e6004803603602081101561075257600080fd5b50356001600160a01b031661157b565b6104396115ea565b6104556115f5565b610455611664565b61038e6004803603602081101561079057600080fd5b503561170f565b6105c96117bb565b610455611806565b61038e611827565b610455600480360360408110156107c557600080fd5b506001600160a01b03813581169160200135166119d6565b610455600480360360208110156107f357600080fd5b5035611a01565b61038e611ab4565b610455611b36565b6105c9611b43565b6105c9611b52565b6105c9611ba1565b61038e611bf0565b6105c9611c7e565b6007546001600160a01b0316331461087f576040805162461bcd60e51b815260206004820152600b60248201526a10b1b7b73a3937b63632b960a91b604482015290519081900360640190fd5b6005546001600160a01b038381166101009092041614156108cf576040805162461bcd60e51b81526020600482015260056024820152643a37b5b2b760d91b604482015290519081900360640190fd5b6007546108ef906001600160a01b0384811691168363ffffffff611c9216565b5050565b60038054604080516020601f600260001961010060018816150201909516949094049384018190048102820181019092528281526060939092909183018282801561097f5780601f106109545761010080835404028352916020019161097f565b820191906000526020600020905b81548152906001019060200180831161096257829003601f168201915b505050505090505b90565b600061099e610997611ce4565b8484611ce8565b5060015b92915050565b60075460408051637572458960e01b8152306004820152905160009283926001600160a01b0390911691637572458991602480820192602092909190829003018186803b1580156109f857600080fd5b505afa158015610a0c573d6000803e3d6000fd5b505050506040513d6020811015610a2257600080fd5b505190506000610a30611b52565b604080516328dd2d0160e01b81526001600160a01b038581166004830152306024830152915192909116916328dd2d019160448082019261014092909190829003018186803b158015610a8257600080fd5b505afa158015610a96573d6000803e3d6000fd5b505050506040513d610140811015610aad57600080fd5b50602001519250505090565b610ac1611b52565b6001600160a01b0316635a3b74b9610ad761118d565b604080516001600160e01b031960e085901b1681526001600160a01b0390921660048301526001602483015251604480830192600092919082900301818387803b158015610b2457600080fd5b505af1158015610b38573d6000803e3d6000fd5b50505050565b6000610b486113e5565b6001600160a01b031663b3596f07836040518263ffffffff1660e01b815260040180826001600160a01b03166001600160a01b0316815260200191505060206040518083038186803b158015610b9d57600080fd5b505afa158015610bb1573d6000803e3d6000fd5b505050506040513d6020811015610bc757600080fd5b505190505b919050565b60025490565b600080610be261129b565b11905090565b60095481565b816001600160a01b031663095ea7b3610c05611ba1565b60006040518363ffffffff1660e01b815260040180836001600160a01b03166001600160a01b0316815260200182815260200192505050602060405180830381600087803b158015610c5657600080fd5b505af1158015610c6a573d6000803e3d6000fd5b505050506040513d6020811015610c8057600080fd5b50506001600160a01b03821663095ea7b3610c99611ba1565b836040518363ffffffff1660e01b815260040180836001600160a01b03166001600160a01b0316815260200182815260200192505050602060405180830381600087803b158015610ce957600080fd5b505af1158015610cfd573d6000803e3d6000fd5b505050506040513d6020811015610d1357600080fd5b50610d1e9050611b52565b6040805163173aba7160e21b81526001600160a01b0385811660048301526024820185905230604483015291519290911691635ceae9c49160648082019260009290919082900301818387803b158015610d7757600080fd5b505af1158015610d8b573d6000803e3d6000fd5b505050505050565b6000610da0848484611dd4565b610e1684610dac611ce4565b610e1185604051806060016040528060288152602001612796602891396001600160a01b038a16600090815260016020526040812090610dea611ce4565b6001600160a01b03168152602081019190915260400160002054919063ffffffff611f3b16565b611ce8565b5060019392505050565b60006109a2610e2d610bd1565b610e41610e3985611214565b610e416109a8565b9063ffffffff611fd216565b6000610e72610e5a610bd1565b610e6684610e41611664565b9063ffffffff61203216565b9050610e7e3383612074565b610e878161217c565b6005546108ef9061010090046001600160a01b03163383611c92565b6006546001600160a01b03163314610ef0576040805162461bcd60e51b815260206004820152600b60248201526a21676f7665726e616e636560a81b604482015290519081900360640190fd5b600955565b60055460ff1690565b600061099e610f0b611ce4565b84610e118560016000610f1c611ce4565b6001600160a01b03908116825260208083019390935260409182016000908120918c16815292529020549063ffffffff61222216565b6000610f64610f5f61118d565b610b3e565b905090565b6006546001600160a01b031681565b6000806000806000610f88611b52565b6001600160a01b031663bf92857c306040518263ffffffff1660e01b815260040180826001600160a01b03166001600160a01b031681526020019150506101006040518083038186803b158015610fde57600080fd5b505afa158015610ff2573d6000803e3d6000fd5b505050506040513d61010081101561100957600080fd5b5060408101516080909101519092509050600061102c838363ffffffff61222216565b90506110436009548261203290919063ffffffff16565b9550919350915050909192565b600b5481565b6000806110616117bb565b9050600061106e84611a01565b905060008061107b610f78565b5090925090506110976064610e6684606963ffffffff611fd216565b9150818311156110aa57600091506110bd565b6110ba828463ffffffff61227c16565b91505b808210156111805760006110eb82610e666110de828763ffffffff61227c16565b859063ffffffff611fd216565b90506111736110f8611b36565b610e66876001600160a01b031663313ce5676040518163ffffffff1660e01b815260040160206040518083038186803b15801561113457600080fd5b505afa158015611148573d6000803e3d6000fd5b505050506040513d602081101561115e57600080fd5b5051849060ff16600a0a63ffffffff611fd216565b9550610bcc945050505050565b6000945050505050610bcc565b6000600560019054906101000a90046001600160a01b03166001600160a01b03166389d1a0fc6040518163ffffffff1660e01b815260040160206040518083038186803b1580156111dd57600080fd5b505afa1580156111f1573d6000803e3d6000fd5b505050506040513d602081101561120757600080fd5b5051905090565b600a5481565b6001600160a01b031660009081526020819052604090205490565b6000610f6461123c610bd1565b610e66670de0b6b3a7640000610e41611664565b61125a600061217c565b565b60006112686000611056565b5090565b7324a42fd28c976a61df5d00d0599c34c4f90748c881565b61125a61129033611214565b610e4d565b60085481565b6000806112a66117bb565b905060006112b26115f5565b9050801561130a576113016112c5611b36565b610e66846001600160a01b031663313ce5676040518163ffffffff1660e01b815260040160206040518083038186803b15801561113457600080fd5b92505050610987565b600092505050610987565b6006546001600160a01b03163314611362576040805162461bcd60e51b815260206004820152600b60248201526a21676f7665726e616e636560a81b604482015290519081900360640190fd5b600780546001600160a01b0319166001600160a01b0392909216919091179055565b60048054604080516020601f600260001961010060018816150201909516949094049384018190048102820181019092528281526060939092909183018282801561097f5780601f106109545761010080835404028352916020019161097f565b60007324a42fd28c976a61df5d00d0599c34c4f90748c86001600160a01b031663fca513a86040518163ffffffff1660e01b815260040160206040518083038186803b1580156111dd57600080fd5b600754604080516370a0823160e01b815230600482015290516000926001600160a01b0316916370a08231916024808301926020929190829003018186803b1580156111dd57600080fd5b600061099e61148c611ce4565b84610e118560405180606001604052806025815260200161285260259139600160006114b6611ce4565b6001600160a01b03908116825260208083019390935260409182016000908120918d1681529252902054919063ffffffff611f3b16565b6007546001600160a01b0316331461153a576040805162461bcd60e51b815260206004820152600b60248201526a10b1b7b73a3937b63632b960a91b604482015290519081900360640190fd5b600754600854600554611560926001600160a01b03610100909204821692911690611c92565b6000600855565b600061099e611574611ce4565b8484611dd4565b6006546001600160a01b031633146115c8576040805162461bcd60e51b815260206004820152600b60248201526a21676f7665726e616e636560a81b604482015290519081900360640190fd5b600680546001600160a01b0319166001600160a01b0392909216919091179055565b600080610be261125c565b600080600080611603610f78565b919450925090506116206064610e6685605f63ffffffff611fd216565b9250818311156116585761164e81610e66611641868663ffffffff61227c16565b849063ffffffff611fd216565b9350505050610987565b60009350505050610987565b6000610f64600854600560019054906101000a90046001600160a01b03166001600160a01b03166370a08231306040518263ffffffff1660e01b815260040180826001600160a01b03166001600160a01b0316815260200191505060206040518083038186803b1580156116d757600080fd5b505afa1580156116eb573d6000803e3d6000fd5b505050506040513d602081101561170157600080fd5b50519063ffffffff61227c16565b6000611719611664565b6005549091506117399061010090046001600160a01b03163330856122be565b6000611752612710610e6685603263ffffffff611fd216565b9050611764838263ffffffff61227c16565b60085490935061177a908263ffffffff61222216565b6008556000611787610bd1565b6117925750826117b1565b6117ae83610e666117a1610bd1565b879063ffffffff611fd216565b90505b610b383382612318565b60075460408051637572458960e01b815230600482015290516000926001600160a01b0316916375724589916024808301926020929190829003018186803b1580156111dd57600080fd5b6000610f646118136109a8565b610e66670de0b6b3a7640000610e41611434565b60006118316117bb565b9050600061183d61129b565b905080156118c75761184d611b52565b6040805163c858f5f960e01b81526001600160a01b0385811660048301526024820185905260026044830152600760648301529151929091169163c858f5f99160848082019260009290919082900301818387803b1580156118ae57600080fd5b505af11580156118c2573d6000803e3d6000fd5b505050505b604080516370a0823160e01b815230600482015290516000916001600160a01b038516916370a0823191602480820192602092909190829003018186803b15801561191157600080fd5b505afa158015611925573d6000803e3d6000fd5b505050506040513d602081101561193b57600080fd5b5051905080156119d157600754611965906001600160a01b0385811691168363ffffffff611c9216565b6007546040805163b02bf4b960e01b81523060048201526024810184905290516001600160a01b039092169163b02bf4b99160448082019260009290919082900301818387803b1580156119b857600080fd5b505af11580156119cc573d6000803e3d6000fd5b505050505b505050565b6001600160a01b03918216600090815260016020908152604080832093909416825291909152205490565b6000611a91600560019054906101000a90046001600160a01b03166001600160a01b031663313ce5676040518163ffffffff1660e01b815260040160206040518083038186803b158015611a5457600080fd5b505afa158015611a68573d6000803e3d6000fd5b505050506040513d6020811015611a7e57600080fd5b505160ff16600a0a610e666110de610f52565b91506109a2600954610e66600b54610e66600a5487611fd290919063ffffffff16565b600554604080516370a0823160e01b8152336004820152905161125a9261010090046001600160a01b0316916370a08231916024808301926020929190829003018186803b158015611b0557600080fd5b505afa158015611b19573d6000803e3d6000fd5b505050506040513d6020811015611b2f57600080fd5b505161170f565b6000610f64610f5f6117bb565b6007546001600160a01b031681565b60007324a42fd28c976a61df5d00d0599c34c4f90748c86001600160a01b0316630261bf8b6040518163ffffffff1660e01b815260040160206040518083038186803b1580156111dd57600080fd5b60007324a42fd28c976a61df5d00d0599c34c4f90748c86001600160a01b031663ed6ff7606040518163ffffffff1660e01b815260040160206040518083038186803b1580156111dd57600080fd5b6000611bfa6117bb565b604080516370a0823160e01b815230600482015290519192506000916001600160a01b038416916370a08231916024808301926020929190829003018186803b158015611c4657600080fd5b505afa158015611c5a573d6000803e3d6000fd5b505050506040513d6020811015611c7057600080fd5b505190506108ef8282610bee565b60055461010090046001600160a01b031681565b604080516001600160a01b038416602482015260448082018490528251808303909101815260649091019091526020810180516001600160e01b031663a9059cbb60e01b1790526119d1908490612414565b3390565b6001600160a01b038316611d2d5760405162461bcd60e51b81526004018080602001828103825260248152602001806128046024913960400191505060405180910390fd5b6001600160a01b038216611d725760405162461bcd60e51b815260040180806020018281038252602281526020018061272d6022913960400191505060405180910390fd5b6001600160a01b03808416600081815260016020908152604080832094871680845294825291829020859055815185815291517f8c5be1e5ebec7d5bd14f71427d1e84f3dd0314c0f7b2291e5b200ac8c7c3b9259281900390910190a3505050565b6001600160a01b038316611e195760405162461bcd60e51b81526004018080602001828103825260258152602001806127df6025913960400191505060405180910390fd5b6001600160a01b038216611e5e5760405162461bcd60e51b81526004018080602001828103825260238152602001806126e86023913960400191505060405180910390fd5b611e698383836119d1565b611eac8160405180606001604052806026815260200161274f602691396001600160a01b038616600090815260208190526040902054919063ffffffff611f3b16565b6001600160a01b038085166000908152602081905260408082209390935590841681522054611ee1908263ffffffff61222216565b6001600160a01b038084166000818152602081815260409182902094909455805185815290519193928716927fddf252ad1be2c89b69c2b068fc378daa952ba7f163c4a11628f55a4df523b3ef92918290030190a3505050565b60008184841115611fca5760405162461bcd60e51b81526004018080602001828103825283818151815260200191508051906020019080838360005b83811015611f8f578181015183820152602001611f77565b50505050905090810190601f168015611fbc5780820380516001836020036101000a031916815260200191505b509250505060405180910390fd5b505050900390565b600082611fe1575060006109a2565b82820282848281611fee57fe5b041461202b5760405162461bcd60e51b81526004018080602001828103825260218152602001806127756021913960400191505060405180910390fd5b9392505050565b600061202b83836040518060400160405280601a81526020017f536166654d6174683a206469766973696f6e206279207a65726f0000000000008152506124c5565b6001600160a01b0382166120b95760405162461bcd60e51b81526004018080602001828103825260218152602001806127be6021913960400191505060405180910390fd5b6120c5826000836119d1565b6121088160405180606001604052806022815260200161270b602291396001600160a01b038516600090815260208190526040902054919063ffffffff611f3b16565b6001600160a01b038316600090815260208190526040902055600254612134908263ffffffff61227c16565b6002556040805182815290516000916001600160a01b038516917fddf252ad1be2c89b69c2b068fc378daa952ba7f163c4a11628f55a4df523b3ef9181900360200190a35050565b600061218782611056565b905080156108ef57612197611434565b8111156121a9576121a6611434565b90505b80156108ef576007546040805163f3fef3a360e01b81523060048201526024810184905290516001600160a01b039092169163f3fef3a39160448082019260009290919082900301818387803b15801561220257600080fd5b505af1158015612216573d6000803e3d6000fd5b505050506108ef611bf0565b60008282018381101561202b576040805162461bcd60e51b815260206004820152601b60248201527f536166654d6174683a206164646974696f6e206f766572666c6f770000000000604482015290519081900360640190fd5b600061202b83836040518060400160405280601e81526020017f536166654d6174683a207375627472616374696f6e206f766572666c6f770000815250611f3b565b604080516001600160a01b0380861660248301528416604482015260648082018490528251808303909101815260849091019091526020810180516001600160e01b03166323b872dd60e01b179052610b38908590612414565b6001600160a01b038216612373576040805162461bcd60e51b815260206004820152601f60248201527f45524332303a206d696e7420746f20746865207a65726f206164647265737300604482015290519081900360640190fd5b61237f600083836119d1565b600254612392908263ffffffff61222216565b6002556001600160a01b0382166000908152602081905260409020546123be908263ffffffff61222216565b6001600160a01b0383166000818152602081815260408083209490945583518581529351929391927fddf252ad1be2c89b69c2b068fc378daa952ba7f163c4a11628f55a4df523b3ef9281900390910190a35050565b6060612469826040518060400160405280602081526020017f5361666545524332303a206c6f772d6c6576656c2063616c6c206661696c6564815250856001600160a01b031661252a9092919063ffffffff16565b8051909150156119d15780806020019051602081101561248857600080fd5b50516119d15760405162461bcd60e51b815260040180806020018281038252602a815260200180612828602a913960400191505060405180910390fd5b600081836125145760405162461bcd60e51b8152602060048201818152835160248401528351909283926044909101919085019080838360008315611f8f578181015183820152602001611f77565b50600083858161252057fe5b0495945050505050565b60606125398484600085612541565b949350505050565b606061254c856126ae565b61259d576040805162461bcd60e51b815260206004820152601d60248201527f416464726573733a2063616c6c20746f206e6f6e2d636f6e7472616374000000604482015290519081900360640190fd5b60006060866001600160a01b031685876040518082805190602001908083835b602083106125dc5780518252601f1990920191602091820191016125bd565b6001836020036101000a03801982511681845116808217855250505050505090500191505060006040518083038185875af1925050503d806000811461263e576040519150601f19603f3d011682016040523d82523d6000602084013e612643565b606091505b509150915081156126575791506125399050565b8051156126675780518082602001fd5b60405162461bcd60e51b8152602060048201818152865160248401528651879391928392604401919085019080838360008315611f8f578181015183820152602001611f77565b6000813f7fc5d2460186f7233c927e7db2dcc703c0e500b653ca82273b7bfad8045d85a47081811480159061253957505015159291505056fe45524332303a207472616e7366657220746f20746865207a65726f206164647265737345524332303a206275726e20616d6f756e7420657863656564732062616c616e636545524332303a20617070726f766520746f20746865207a65726f206164647265737345524332303a207472616e7366657220616d6f756e7420657863656564732062616c616e6365536166654d6174683a206d756c7469706c69636174696f6e206f766572666c6f7745524332303a207472616e7366657220616d6f756e74206578636565647320616c6c6f77616e636545524332303a206275726e2066726f6d20746865207a65726f206164647265737345524332303a207472616e736665722066726f6d20746865207a65726f206164647265737345524332303a20617070726f76652066726f6d20746865207a65726f20616464726573735361666545524332303a204552433230206f7065726174696f6e20646964206e6f74207375636365656445524332303a2064656372656173656420616c6c6f77616e63652062656c6f77207a65726fa26469706673582212202acff139268dcc562bc7b7ba7fd06f033dce949f23f284d45892af3508989a4764736f6c63430006020033",
  "bytecodeSha1": "194b59859cc9fda2a95309b84ebf89a7af8d1ebd",
  "compiler": {
    "evm_version": "istanbul",
    "optimizer": {
      "enabled": true,
      "runs": 200
    },
    "version": "0.6.2"
  },
  "contractName": "yDelegatedVault",
  "language": "Solidity",
  "natspec": {
    "methods": {
      "allowance(address,address)": {
        "details": "See {IERC20-allowance}."
      },
      "approve(address,uint256)": {
        "details": "See {IERC20-approve}.     * Requirements:     * - `spender` cannot be the zero address."
      },
      "balanceOf(address)": {
        "details": "See {IERC20-balanceOf}."
      },
      "decimals()": {
        "details": "Returns the number of decimals used to get its user representation. For example, if `decimals` equals `2`, a balance of `505` tokens should be displayed to a user as `5,05` (`505 / 10 ** 2`).     * Tokens usually opt for a value of 18, imitating the relationship between Ether and Wei. This is the value {ERC20} uses, unless {_setupDecimals} is called.     * NOTE: This information is only used for _display_ purposes: it in no way affects any of the arithmetic of the contract, including {IERC20-balanceOf} and {IERC20-transfer}."
      },
      "decreaseAllowance(address,uint256)": {
        "details": "Atomically decreases the allowance granted to `spender` by the caller.     * This is an alternative to {approve} that can be used as a mitigation for problems described in {IERC20-approve}.     * Emits an {Approval} event indicating the updated allowance.     * Requirements:     * - `spender` cannot be the zero address. - `spender` must have allowance for the caller of at least `subtractedValue`."
      },
      "increaseAllowance(address,uint256)": {
        "details": "Atomically increases the allowance granted to `spender` by the caller.     * This is an alternative to {approve} that can be used as a mitigation for problems described in {IERC20-approve}.     * Emits an {Approval} event indicating the updated allowance.     * Requirements:     * - `spender` cannot be the zero address."
      },
      "name()": {
        "details": "Returns the name of the token."
      },
      "symbol()": {
        "details": "Returns the symbol of the token, usually a shorter version of the name."
      },
      "totalSupply()": {
        "details": "See {IERC20-totalSupply}."
      },
      "transfer(address,uint256)": {
        "details": "See {IERC20-transfer}.     * Requirements:     * - `recipient` cannot be the zero address. - the caller must have a balance of at least `amount`."
      },
      "transferFrom(address,address,uint256)": {
        "details": "See {IERC20-transferFrom}.     * Emits an {Approval} event indicating the updated allowance. This is not required by the EIP. See the note at the beginning of {ERC20};     * Requirements: - `sender` and `recipient` cannot be the zero address. - `sender` must have a balance of at least `amount`. - the caller must have allowance for ``sender``'s tokens of at least `amount`."
      }
    }
  },
  "opcodes": "PUSH1 0x80 PUSH1 0x40 MSTORE CALLVALUE DUP1 ISZERO PUSH2 0x10 JUMPI PUSH1 0x0 DUP1 REVERT JUMPDEST POP PUSH1 0x4 CALLDATASIZE LT PUSH2 0x35D JUMPI PUSH1 0x0 CALLDATALOAD PUSH1 0xE0 SHR DUP1 PUSH4 0x819FAF7B GT PUSH2 0x1D3 JUMPI DUP1 PUSH4 0xB69EF8A8 GT PUSH2 0x104 JUMPI DUP1 PUSH4 0xDE5F6268 GT PUSH2 0xA2 JUMPI DUP1 PUSH4 0xF7C1EC77 GT PUSH2 0x7C JUMPI DUP1 PUSH4 0xF7C1EC77 EQ PUSH2 0x812 JUMPI DUP1 PUSH4 0xF82CE27D EQ PUSH2 0x81A JUMPI DUP1 PUSH4 0xFA3AE6DC EQ PUSH2 0x822 JUMPI DUP1 PUSH4 0xFC0C546A EQ PUSH2 0x82A JUMPI PUSH2 0x35D JUMP JUMPDEST DUP1 PUSH4 0xDE5F6268 EQ PUSH2 0x7FA JUMPI DUP1 PUSH4 0xF0722322 EQ PUSH2 0x802 JUMPI DUP1 PUSH4 0xF77C4791 EQ PUSH2 0x80A JUMPI PUSH2 0x35D JUMP JUMPDEST DUP1 PUSH4 0xCF309012 GT PUSH2 0xDE JUMPI DUP1 PUSH4 0xCF309012 EQ PUSH2 0x79F JUMPI DUP1 PUSH4 0xD389800F EQ PUSH2 0x7A7 JUMPI DUP1 PUSH4 0xDD62ED3E EQ PUSH2 0x7AF JUMPI DUP1 PUSH4 0xDD90A791 EQ PUSH2 0x7DD JUMPI PUSH2 0x35D JUMP JUMPDEST DUP1 PUSH4 0xB69EF8A8 EQ PUSH2 0x772 JUMPI DUP1 PUSH4 0xB6B55F25 EQ PUSH2 0x77A JUMPI DUP1 PUSH4 0xCD3293DE EQ PUSH2 0x797 JUMPI PUSH2 0x35D JUMP JUMPDEST DUP1 PUSH4 0xA06D083C GT PUSH2 0x171 JUMPI DUP1 PUSH4 0xA9059CBB GT PUSH2 0x14B JUMPI DUP1 PUSH4 0xA9059CBB EQ PUSH2 0x710 JUMPI DUP1 PUSH4 0xAB033EA9 EQ PUSH2 0x73C JUMPI DUP1 PUSH4 0xAE2C1D5F EQ PUSH2 0x762 JUMPI DUP1 PUSH4 0xB040785A EQ PUSH2 0x76A JUMPI PUSH2 0x35D JUMP JUMPDEST DUP1 PUSH4 0xA06D083C EQ PUSH2 0x6D4 JUMPI DUP1 PUSH4 0xA457C2D7 EQ PUSH2 0x6DC JUMPI DUP1 PUSH4 0xA75AC608 EQ PUSH2 0x708 JUMPI PUSH2 0x35D JUMP JUMPDEST DUP1 PUSH4 0x929C8849 GT PUSH2 0x1AD JUMPI DUP1 PUSH4 0x929C8849 EQ PUSH2 0x696 JUMPI DUP1 PUSH4 0x92EEFE9B EQ PUSH2 0x69E JUMPI DUP1 PUSH4 0x95D89B41 EQ PUSH2 0x6C4 JUMPI DUP1 PUSH4 0x9F287E16 EQ PUSH2 0x6CC JUMPI PUSH2 0x35D JUMP JUMPDEST DUP1 PUSH4 0x819FAF7B EQ PUSH2 0x67E JUMPI DUP1 PUSH4 0x853828B6 EQ PUSH2 0x686 JUMPI DUP1 PUSH4 0x89CF3204 EQ PUSH2 0x68E JUMPI PUSH2 0x35D JUMP JUMPDEST DUP1 PUSH4 0x31111708 GT PUSH2 0x2AD JUMPI DUP1 PUSH4 0x6AD4E251 GT PUSH2 0x24B JUMPI DUP1 PUSH4 0x70A08231 GT PUSH2 0x225 JUMPI DUP1 PUSH4 0x70A08231 EQ PUSH2 0x640 JUMPI DUP1 PUSH4 0x77C7B8FC EQ PUSH2 0x666 JUMPI DUP1 PUSH4 0x7D7C2A1C EQ PUSH2 0x66E JUMPI DUP1 PUSH4 0x7EAEF50C EQ PUSH2 0x676 JUMPI PUSH2 0x35D JUMP JUMPDEST DUP1 PUSH4 0x6AD4E251 EQ PUSH2 0x613 JUMPI DUP1 PUSH4 0x6F307DC3 EQ PUSH2 0x630 JUMPI DUP1 PUSH4 0x6FB49D73 EQ PUSH2 0x638 JUMPI PUSH2 0x35D JUMP JUMPDEST DUP1 PUSH4 0x468F02D2 GT PUSH2 0x287 JUMPI DUP1 PUSH4 0x468F02D2 EQ PUSH2 0x5B9 JUMPI DUP1 PUSH4 0x5AA6E675 EQ PUSH2 0x5C1 JUMPI DUP1 PUSH4 0x62F5548D EQ PUSH2 0x5E5 JUMPI DUP1 PUSH4 0x6AC5DB19 EQ PUSH2 0x60B JUMPI PUSH2 0x35D JUMP JUMPDEST DUP1 PUSH4 0x31111708 EQ PUSH2 0x552 JUMPI DUP1 PUSH4 0x313CE567 EQ PUSH2 0x56F JUMPI DUP1 PUSH4 0x39509351 EQ PUSH2 0x58D JUMPI PUSH2 0x35D JUMP JUMPDEST DUP1 PUSH4 0x18160DDD GT PUSH2 0x31A JUMPI DUP1 PUSH4 0x22867D78 GT PUSH2 0x2F4 JUMPI DUP1 PUSH4 0x22867D78 EQ PUSH2 0x4AD JUMPI DUP1 PUSH4 0x23B872DD EQ PUSH2 0x4D9 JUMPI DUP1 PUSH4 0x2851E2E0 EQ PUSH2 0x50F JUMPI DUP1 PUSH4 0x2E1A7D4D EQ PUSH2 0x535 JUMPI PUSH2 0x35D JUMP JUMPDEST DUP1 PUSH4 0x18160DDD EQ PUSH2 0x495 JUMPI DUP1 PUSH4 0x1B93E5B0 EQ PUSH2 0x49D JUMPI DUP1 PUSH4 0x22841F01 EQ PUSH2 0x4A5 JUMPI PUSH2 0x35D JUMP JUMPDEST DUP1 PUSH4 0x18EE9B7 EQ PUSH2 0x362 JUMPI DUP1 PUSH4 0x6FDDE03 EQ PUSH2 0x390 JUMPI DUP1 PUSH4 0x95EA7B3 EQ PUSH2 0x40D JUMPI DUP1 PUSH4 0xDCA59C1 EQ PUSH2 0x44D JUMPI DUP1 PUSH4 0xF15F4C0 EQ PUSH2 0x467 JUMPI DUP1 PUSH4 0x11DDDCA4 EQ PUSH2 0x46F JUMPI JUMPDEST PUSH1 0x0 DUP1 REVERT JUMPDEST PUSH2 0x38E PUSH1 0x4 DUP1 CALLDATASIZE SUB PUSH1 0x40 DUP2 LT ISZERO PUSH2 0x378 JUMPI PUSH1 0x0 DUP1 REVERT JUMPDEST POP PUSH1 0x1 PUSH1 0x1 PUSH1 0xA0 SHL SUB DUP2 CALLDATALOAD AND SWAP1 PUSH1 0x20 ADD CALLDATALOAD PUSH2 0x832 JUMP JUMPDEST STOP JUMPDEST PUSH2 0x398 PUSH2 0x8F3 JUMP JUMPDEST PUSH1 0x40 DUP1 MLOAD PUSH1 0x20 DUP1 DUP3 MSTORE DUP4 MLOAD DUP2 DUP4 ADD MSTORE DUP4 MLOAD SWAP2 SWAP3 DUP4 SWAP3 SWAP1 DUP4 ADD SWAP2 DUP6 ADD SWAP1 DUP1 DUP4 DUP4 PUSH1 0x0 JUMPDEST DUP4 DUP2 LT ISZERO PUSH2 0x3D2 JUMPI DUP2 DUP2 ADD MLOAD DUP4 DUP3 ADD MSTORE PUSH1 0x20 ADD PUSH2 0x3BA JUMP JUMPDEST POP POP POP POP SWAP1 POP SWAP1 DUP2 ADD SWAP1 PUSH1 0x1F AND DUP1 ISZERO PUSH2 0x3FF JUMPI DUP1 DUP3 SUB DUP1 MLOAD PUSH1 0x1 DUP4 PUSH1 0x20 SUB PUSH2 0x100 EXP SUB NOT AND DUP2 MSTORE PUSH1 0x20 ADD SWAP2 POP JUMPDEST POP SWAP3 POP POP POP PUSH1 0x40 MLOAD DUP1 SWAP2 SUB SWAP1 RETURN JUMPDEST PUSH2 0x439 PUSH1 0x4 DUP1 CALLDATASIZE SUB PUSH1 0x40 DUP2 LT ISZERO PUSH2 0x423 JUMPI PUSH1 0x0 DUP1 REVERT JUMPDEST POP PUSH1 0x1 PUSH1 0x1 PUSH1 0xA0 SHL SUB DUP2 CALLDATALOAD AND SWAP1 PUSH1 0x20 ADD CALLDATALOAD PUSH2 0x98A JUMP JUMPDEST PUSH1 0x40 DUP1 MLOAD SWAP2 ISZERO ISZERO DUP3 MSTORE MLOAD SWAP1 DUP2 SWAP1 SUB PUSH1 0x20 ADD SWAP1 RETURN JUMPDEST PUSH2 0x455 PUSH2 0x9A8 JUMP JUMPDEST PUSH1 0x40 DUP1 MLOAD SWAP2 DUP3 MSTORE MLOAD SWAP1 DUP2 SWAP1 SUB PUSH1 0x20 ADD SWAP1 RETURN JUMPDEST PUSH2 0x38E PUSH2 0xAB9 JUMP JUMPDEST PUSH2 0x455 PUSH1 0x4 DUP1 CALLDATASIZE SUB PUSH1 0x20 DUP2 LT ISZERO PUSH2 0x485 JUMPI PUSH1 0x0 DUP1 REVERT JUMPDEST POP CALLDATALOAD PUSH1 0x1 PUSH1 0x1 PUSH1 0xA0 SHL SUB AND PUSH2 0xB3E JUMP JUMPDEST PUSH2 0x455 PUSH2 0xBD1 JUMP JUMPDEST PUSH2 0x439 PUSH2 0xBD7 JUMP JUMPDEST PUSH2 0x455 PUSH2 0xBE8 JUMP JUMPDEST PUSH2 0x38E PUSH1 0x4 DUP1 CALLDATASIZE SUB PUSH1 0x40 DUP2 LT ISZERO PUSH2 0x4C3 JUMPI PUSH1 0x0 DUP1 REVERT JUMPDEST POP PUSH1 0x1 PUSH1 0x1 PUSH1 0xA0 SHL SUB DUP2 CALLDATALOAD AND SWAP1 PUSH1 0x20 ADD CALLDATALOAD PUSH2 0xBEE JUMP JUMPDEST PUSH2 0x439 PUSH1 0x4 DUP1 CALLDATASIZE SUB PUSH1 0x60 DUP2 LT ISZERO PUSH2 0x4EF JUMPI PUSH1 0x0 DUP1 REVERT JUMPDEST POP PUSH1 0x1 PUSH1 0x1 PUSH1 0xA0 SHL SUB DUP2 CALLDATALOAD DUP2 AND SWAP2 PUSH1 0x20 DUP2 ADD CALLDATALOAD SWAP1 SWAP2 AND SWAP1 PUSH1 0x40 ADD CALLDATALOAD PUSH2 0xD93 JUMP JUMPDEST PUSH2 0x455 PUSH1 0x4 DUP1 CALLDATASIZE SUB PUSH1 0x20 DUP2 LT ISZERO PUSH2 0x525 JUMPI PUSH1 0x0 DUP1 REVERT JUMPDEST POP CALLDATALOAD PUSH1 0x1 PUSH1 0x1 PUSH1 0xA0 SHL SUB AND PUSH2 0xE20 JUMP JUMPDEST PUSH2 0x38E PUSH1 0x4 DUP1 CALLDATASIZE SUB PUSH1 0x20 DUP2 LT ISZERO PUSH2 0x54B JUMPI PUSH1 0x0 DUP1 REVERT JUMPDEST POP CALLDATALOAD PUSH2 0xE4D JUMP JUMPDEST PUSH2 0x38E PUSH1 0x4 DUP1 CALLDATASIZE SUB PUSH1 0x20 DUP2 LT ISZERO PUSH2 0x568 JUMPI PUSH1 0x0 DUP1 REVERT JUMPDEST POP CALLDATALOAD PUSH2 0xEA3 JUMP JUMPDEST PUSH2 0x577 PUSH2 0xEF5 JUMP JUMPDEST PUSH1 0x40 DUP1 MLOAD PUSH1 0xFF SWAP1 SWAP3 AND DUP3 MSTORE MLOAD SWAP1 DUP2 SWAP1 SUB PUSH1 0x20 ADD SWAP1 RETURN JUMPDEST PUSH2 0x439 PUSH1 0x4 DUP1 CALLDATASIZE SUB PUSH1 0x40 DUP2 LT ISZERO PUSH2 0x5A3 JUMPI PUSH1 0x0 DUP1 REVERT JUMPDEST POP PUSH1 0x1 PUSH1 0x1 PUSH1 0xA0 SHL SUB DUP2 CALLDATALOAD AND SWAP1 PUSH1 0x20 ADD CALLDATALOAD PUSH2 0xEFE JUMP JUMPDEST PUSH2 0x455 PUSH2 0xF52 JUMP JUMPDEST PUSH2 0x5C9 PUSH2 0xF69 JUMP JUMPDEST PUSH1 0x40 DUP1 MLOAD PUSH1 0x1 PUSH1 0x1 PUSH1 0xA0 SHL SUB SWAP1 SWAP3 AND DUP3 MSTORE MLOAD SWAP1 DUP2 SWAP1 SUB PUSH1 0x20 ADD SWAP1 RETURN JUMPDEST PUSH2 0x5ED PUSH2 0xF78 JUMP JUMPDEST PUSH1 0x40 DUP1 MLOAD SWAP4 DUP5 MSTORE PUSH1 0x20 DUP5 ADD SWAP3 SWAP1 SWAP3 MSTORE DUP3 DUP3 ADD MSTORE MLOAD SWAP1 DUP2 SWAP1 SUB PUSH1 0x60 ADD SWAP1 RETURN JUMPDEST PUSH2 0x455 PUSH2 0x1050 JUMP JUMPDEST PUSH2 0x455 PUSH1 0x4 DUP1 CALLDATASIZE SUB PUSH1 0x20 DUP2 LT ISZERO PUSH2 0x629 JUMPI PUSH1 0x0 DUP1 REVERT JUMPDEST POP CALLDATALOAD PUSH2 0x1056 JUMP JUMPDEST PUSH2 0x5C9 PUSH2 0x118D JUMP JUMPDEST PUSH2 0x455 PUSH2 0x120E JUMP JUMPDEST PUSH2 0x455 PUSH1 0x4 DUP1 CALLDATASIZE SUB PUSH1 0x20 DUP2 LT ISZERO PUSH2 0x656 JUMPI PUSH1 0x0 DUP1 REVERT JUMPDEST POP CALLDATALOAD PUSH1 0x1 PUSH1 0x1 PUSH1 0xA0 SHL SUB AND PUSH2 0x1214 JUMP JUMPDEST PUSH2 0x455 PUSH2 0x122F JUMP JUMPDEST PUSH2 0x38E PUSH2 0x1250 JUMP JUMPDEST PUSH2 0x455 PUSH2 0x125C JUMP JUMPDEST PUSH2 0x5C9 PUSH2 0x126C JUMP JUMPDEST PUSH2 0x38E PUSH2 0x1284 JUMP JUMPDEST PUSH2 0x455 PUSH2 0x1295 JUMP JUMPDEST PUSH2 0x455 PUSH2 0x129B JUMP JUMPDEST PUSH2 0x38E PUSH1 0x4 DUP1 CALLDATASIZE SUB PUSH1 0x20 DUP2 LT ISZERO PUSH2 0x6B4 JUMPI PUSH1 0x0 DUP1 REVERT JUMPDEST POP CALLDATALOAD PUSH1 0x1 PUSH1 0x1 PUSH1 0xA0 SHL SUB AND PUSH2 0x1315 JUMP JUMPDEST PUSH2 0x398 PUSH2 0x1384 JUMP JUMPDEST PUSH2 0x5C9 PUSH2 0x13E5 JUMP JUMPDEST PUSH2 0x455 PUSH2 0x1434 JUMP JUMPDEST PUSH2 0x439 PUSH1 0x4 DUP1 CALLDATASIZE SUB PUSH1 0x40 DUP2 LT ISZERO PUSH2 0x6F2 JUMPI PUSH1 0x0 DUP1 REVERT JUMPDEST POP PUSH1 0x1 PUSH1 0x1 PUSH1 0xA0 SHL SUB DUP2 CALLDATALOAD AND SWAP1 PUSH1 0x20 ADD CALLDATALOAD PUSH2 0x147F JUMP JUMPDEST PUSH2 0x38E PUSH2 0x14ED JUMP JUMPDEST PUSH2 0x439 PUSH1 0x4 DUP1 CALLDATASIZE SUB PUSH1 0x40 DUP2 LT ISZERO PUSH2 0x726 JUMPI PUSH1 0x0 DUP1 REVERT JUMPDEST POP PUSH1 0x1 PUSH1 0x1 PUSH1 0xA0 SHL SUB DUP2 CALLDATALOAD AND SWAP1 PUSH1 0x20 ADD CALLDATALOAD PUSH2 0x1567 JUMP JUMPDEST PUSH2 0x38E PUSH1 0x4 DUP1 CALLDATASIZE SUB PUSH1 0x20 DUP2 LT ISZERO PUSH2 0x752 JUMPI PUSH1 0x0 DUP1 REVERT JUMPDEST POP CALLDATALOAD PUSH1 0x1 PUSH1 0x1 PUSH1 0xA0 SHL SUB AND PUSH2 0x157B JUMP JUMPDEST PUSH2 0x439 PUSH2 0x15EA JUMP JUMPDEST PUSH2 0x455 PUSH2 0x15F5 JUMP JUMPDEST PUSH2 0x455 PUSH2 0x1664 JUMP JUMPDEST PUSH2 0x38E PUSH1 0x4 DUP1 CALLDATASIZE SUB PUSH1 0x20 DUP2 LT ISZERO PUSH2 0x790 JUMPI PUSH1 0x0 DUP1 REVERT JUMPDEST POP CALLDATALOAD PUSH2 0x170F JUMP JUMPDEST PUSH2 0x5C9 PUSH2 0x17BB JUMP JUMPDEST PUSH2 0x455 PUSH2 0x1806 JUMP JUMPDEST PUSH2 0x38E PUSH2 0x1827 JUMP JUMPDEST PUSH2 0x455 PUSH1 0x4 DUP1 CALLDATASIZE SUB PUSH1 0x40 DUP2 LT ISZERO PUSH2 0x7C5 JUMPI PUSH1 0x0 DUP1 REVERT JUMPDEST POP PUSH1 0x1 PUSH1 0x1 PUSH1 0xA0 SHL SUB DUP2 CALLDATALOAD DUP2 AND SWAP2 PUSH1 0x20 ADD CALLDATALOAD AND PUSH2 0x19D6 JUMP JUMPDEST PUSH2 0x455 PUSH1 0x4 DUP1 CALLDATASIZE SUB PUSH1 0x20 DUP2 LT ISZERO PUSH2 0x7F3 JUMPI PUSH1 0x0 DUP1 REVERT JUMPDEST POP CALLDATALOAD PUSH2 0x1A01 JUMP JUMPDEST PUSH2 0x38E PUSH2 0x1AB4 JUMP JUMPDEST PUSH2 0x455 PUSH2 0x1B36 JUMP JUMPDEST PUSH2 0x5C9 PUSH2 0x1B43 JUMP JUMPDEST PUSH2 0x5C9 PUSH2 0x1B52 JUMP JUMPDEST PUSH2 0x5C9 PUSH2 0x1BA1 JUMP JUMPDEST PUSH2 0x38E PUSH2 0x1BF0 JUMP JUMPDEST PUSH2 0x5C9 PUSH2 0x1C7E JUMP JUMPDEST PUSH1 0x7 SLOAD PUSH1 0x1 PUSH1 0x1 PUSH1 0xA0 SHL SUB AND CALLER EQ PUSH2 0x87F JUMPI PUSH1 0x40 DUP1 MLOAD PUSH3 0x461BCD PUSH1 0xE5 SHL DUP2 MSTORE PUSH1 0x20 PUSH1 0x4 DUP3 ADD MSTORE PUSH1 0xB PUSH1 0x24 DUP3 ADD MSTORE PUSH11 0x10B1B7B73A3937B63632B9 PUSH1 0xA9 SHL PUSH1 0x44 DUP3 ADD MSTORE SWAP1 MLOAD SWAP1 DUP2 SWAP1 SUB PUSH1 0x64 ADD SWAP1 REVERT JUMPDEST PUSH1 0x5 SLOAD PUSH1 0x1 PUSH1 0x1 PUSH1 0xA0 SHL SUB DUP4 DUP2 AND PUSH2 0x100 SWAP1 SWAP3 DIV AND EQ ISZERO PUSH2 0x8CF JUMPI PUSH1 0x40 DUP1 MLOAD PUSH3 0x461BCD PUSH1 0xE5 SHL DUP2 MSTORE PUSH1 0x20 PUSH1 0x4 DUP3 ADD MSTORE PUSH1 0x5 PUSH1 0x24 DUP3 ADD MSTORE PUSH5 0x3A37B5B2B7 PUSH1 0xD9 SHL PUSH1 0x44 DUP3 ADD MSTORE SWAP1 MLOAD SWAP1 DUP2 SWAP1 SUB PUSH1 0x64 ADD SWAP1 REVERT JUMPDEST PUSH1 0x7 SLOAD PUSH2 0x8EF SWAP1 PUSH1 0x1 PUSH1 0x1 PUSH1 0xA0 SHL SUB DUP5 DUP2 AND SWAP2 AND DUP4 PUSH4 0xFFFFFFFF PUSH2 0x1C92 AND JUMP JUMPDEST POP POP JUMP JUMPDEST PUSH1 0x3 DUP1 SLOAD PUSH1 0x40 DUP1 MLOAD PUSH1 0x20 PUSH1 0x1F PUSH1 0x2 PUSH1 0x0 NOT PUSH2 0x100 PUSH1 0x1 DUP9 AND ISZERO MUL ADD SWAP1 SWAP6 AND SWAP5 SWAP1 SWAP5 DIV SWAP4 DUP5 ADD DUP2 SWAP1 DIV DUP2 MUL DUP3 ADD DUP2 ADD SWAP1 SWAP3 MSTORE DUP3 DUP2 MSTORE PUSH1 0x60 SWAP4 SWAP1 SWAP3 SWAP1 SWAP2 DUP4 ADD DUP3 DUP3 DUP1 ISZERO PUSH2 0x97F JUMPI DUP1 PUSH1 0x1F LT PUSH2 0x954 JUMPI PUSH2 0x100 DUP1 DUP4 SLOAD DIV MUL DUP4 MSTORE SWAP2 PUSH1 0x20 ADD SWAP2 PUSH2 0x97F JUMP JUMPDEST DUP3 ADD SWAP2 SWAP1 PUSH1 0x0 MSTORE PUSH1 0x20 PUSH1 0x0 KECCAK256 SWAP1 JUMPDEST DUP2 SLOAD DUP2 MSTORE SWAP1 PUSH1 0x1 ADD SWAP1 PUSH1 0x20 ADD DUP1 DUP4 GT PUSH2 0x962 JUMPI DUP3 SWAP1 SUB PUSH1 0x1F AND DUP3 ADD SWAP2 JUMPDEST POP POP POP POP POP SWAP1 POP JUMPDEST SWAP1 JUMP JUMPDEST PUSH1 0x0 PUSH2 0x99E PUSH2 0x997 PUSH2 0x1CE4 JUMP JUMPDEST DUP5 DUP5 PUSH2 0x1CE8 JUMP JUMPDEST POP PUSH1 0x1 JUMPDEST SWAP3 SWAP2 POP POP JUMP JUMPDEST PUSH1 0x7 SLOAD PUSH1 0x40 DUP1 MLOAD PUSH4 0x75724589 PUSH1 0xE0 SHL DUP2 MSTORE ADDRESS PUSH1 0x4 DUP3 ADD MSTORE SWAP1 MLOAD PUSH1 0x0 SWAP3 DUP4 SWAP3 PUSH1 0x1 PUSH1 0x1 PUSH1 0xA0 SHL SUB SWAP1 SWAP2 AND SWAP2 PUSH4 0x75724589 SWAP2 PUSH1 0x24 DUP1 DUP3 ADD SWAP3 PUSH1 0x20 SWAP3 SWAP1 SWAP2 SWAP1 DUP3 SWAP1 SUB ADD DUP2 DUP7 DUP1 EXTCODESIZE ISZERO DUP1 ISZERO PUSH2 0x9F8 JUMPI PUSH1 0x0 DUP1 REVERT JUMPDEST POP GAS STATICCALL ISZERO DUP1 ISZERO PUSH2 0xA0C JUMPI RETURNDATASIZE PUSH1 0x0 DUP1 RETURNDATACOPY RETURNDATASIZE PUSH1 0x0 REVERT JUMPDEST POP POP POP POP PUSH1 0x40 MLOAD RETURNDATASIZE PUSH1 0x20 DUP2 LT ISZERO PUSH2 0xA22 JUMPI PUSH1 0x0 DUP1 REVERT JUMPDEST POP MLOAD SWAP1 POP PUSH1 0x0 PUSH2 0xA30 PUSH2 0x1B52 JUMP JUMPDEST PUSH1 0x40 DUP1 MLOAD PUSH4 0x28DD2D01 PUSH1 0xE0 SHL DUP2 MSTORE PUSH1 0x1 PUSH1 0x1 PUSH1 0xA0 SHL SUB DUP6 DUP2 AND PUSH1 0x4 DUP4 ADD MSTORE ADDRESS PUSH1 0x24 DUP4 ADD MSTORE SWAP2 MLOAD SWAP3 SWAP1 SWAP2 AND SWAP2 PUSH4 0x28DD2D01 SWAP2 PUSH1 0x44 DUP1 DUP3 ADD SWAP3 PUSH2 0x140 SWAP3 SWAP1 SWAP2 SWAP1 DUP3 SWAP1 SUB ADD DUP2 DUP7 DUP1 EXTCODESIZE ISZERO DUP1 ISZERO PUSH2 0xA82 JUMPI PUSH1 0x0 DUP1 REVERT JUMPDEST POP GAS STATICCALL ISZERO DUP1 ISZERO PUSH2 0xA96 JUMPI RETURNDATASIZE PUSH1 0x0 DUP1 RETURNDATACOPY RETURNDATASIZE PUSH1 0x0 REVERT JUMPDEST POP POP POP POP PUSH1 0x40 MLOAD RETURNDATASIZE PUSH2 0x140 DUP2 LT ISZERO PUSH2 0xAAD JUMPI PUSH1 0x0 DUP1 REVERT JUMPDEST POP PUSH1 0x20 ADD MLOAD SWAP3 POP POP POP SWAP1 JUMP JUMPDEST PUSH2 0xAC1 PUSH2 0x1B52 JUMP JUMPDEST PUSH1 0x1 PUSH1 0x1 PUSH1 0xA0 SHL SUB AND PUSH4 0x5A3B74B9 PUSH2 0xAD7 PUSH2 0x118D JUMP JUMPDEST PUSH1 0x40 DUP1 MLOAD PUSH1 0x1 PUSH1 0x1 PUSH1 0xE0 SHL SUB NOT PUSH1 0xE0 DUP6 SWAP1 SHL AND DUP2 MSTORE PUSH1 0x1 PUSH1 0x1 PUSH1 0xA0 SHL SUB SWAP1 SWAP3 AND PUSH1 0x4 DUP4 ADD MSTORE PUSH1 0x1 PUSH1 0x24 DUP4 ADD MSTORE MLOAD PUSH1 0x44 DUP1 DUP4 ADD SWAP3 PUSH1 0x0 SWAP3 SWAP2 SWAP1 DUP3 SWAP1 SUB ADD DUP2 DUP4 DUP8 DUP1 EXTCODESIZE ISZERO DUP1 ISZERO PUSH2 0xB24 JUMPI PUSH1 0x0 DUP1 REVERT JUMPDEST POP GAS CALL ISZERO DUP1 ISZERO PUSH2 0xB38 JUMPI RETURNDATASIZE PUSH1 0x0 DUP1 RETURNDATACOPY RETURNDATASIZE PUSH1 0x0 REVERT JUMPDEST POP POP POP POP JUMP JUMPDEST PUSH1 0x0 PUSH2 0xB48 PUSH2 0x13E5 JUMP JUMPDEST PUSH1 0x1 PUSH1 0x1 PUSH1 0xA0 SHL SUB AND PUSH4 0xB3596F07 DUP4 PUSH1 0x40 MLOAD DUP3 PUSH4 0xFFFFFFFF AND PUSH1 0xE0 SHL DUP2 MSTORE PUSH1 0x4 ADD DUP1 DUP3 PUSH1 0x1 PUSH1 0x1 PUSH1 0xA0 SHL SUB AND PUSH1 0x1 PUSH1 0x1 PUSH1 0xA0 SHL SUB AND DUP2 MSTORE PUSH1 0x20 ADD SWAP2 POP POP PUSH1 0x20 PUSH1 0x40 MLOAD DUP1 DUP4 SUB DUP2 DUP7 DUP1 EXTCODESIZE ISZERO DUP1 ISZERO PUSH2 0xB9D JUMPI PUSH1 0x0 DUP1 REVERT JUMPDEST POP GAS STATICCALL ISZERO DUP1 ISZERO PUSH2 0xBB1 JUMPI RETURNDATASIZE PUSH1 0x0 DUP1 RETURNDATACOPY RETURNDATASIZE PUSH1 0x0 REVERT JUMPDEST POP POP POP POP PUSH1 0x40 MLOAD RETURNDATASIZE PUSH1 0x20 DUP2 LT ISZERO PUSH2 0xBC7 JUMPI PUSH1 0x0 DUP1 REVERT JUMPDEST POP MLOAD SWAP1 POP JUMPDEST SWAP2 SWAP1 POP JUMP JUMPDEST PUSH1 0x2 SLOAD SWAP1 JUMP JUMPDEST PUSH1 0x0 DUP1 PUSH2 0xBE2 PUSH2 0x129B JUMP JUMPDEST GT SWAP1 POP SWAP1 JUMP JUMPDEST PUSH1 0x9 SLOAD DUP2 JUMP JUMPDEST DUP2 PUSH1 0x1 PUSH1 0x1 PUSH1 0xA0 SHL SUB AND PUSH4 0x95EA7B3 PUSH2 0xC05 PUSH2 0x1BA1 JUMP JUMPDEST PUSH1 0x0 PUSH1 0x40 MLOAD DUP4 PUSH4 0xFFFFFFFF AND PUSH1 0xE0 SHL DUP2 MSTORE PUSH1 0x4 ADD DUP1 DUP4 PUSH1 0x1 PUSH1 0x1 PUSH1 0xA0 SHL SUB AND PUSH1 0x1 PUSH1 0x1 PUSH1 0xA0 SHL SUB AND DUP2 MSTORE PUSH1 0x20 ADD DUP3 DUP2 MSTORE PUSH1 0x20 ADD SWAP3 POP POP POP PUSH1 0x20 PUSH1 0x40 MLOAD DUP1 DUP4 SUB DUP2 PUSH1 0x0 DUP8 DUP1 EXTCODESIZE ISZERO DUP1 ISZERO PUSH2 0xC56 JUMPI PUSH1 0x0 DUP1 REVERT JUMPDEST POP GAS CALL ISZERO DUP1 ISZERO PUSH2 0xC6A JUMPI RETURNDATASIZE PUSH1 0x0 DUP1 RETURNDATACOPY RETURNDATASIZE PUSH1 0x0 REVERT JUMPDEST POP POP POP POP PUSH1 0x40 MLOAD RETURNDATASIZE PUSH1 0x20 DUP2 LT ISZERO PUSH2 0xC80 JUMPI PUSH1 0x0 DUP1 REVERT JUMPDEST POP POP PUSH1 0x1 PUSH1 0x1 PUSH1 0xA0 SHL SUB DUP3 AND PUSH4 0x95EA7B3 PUSH2 0xC99 PUSH2 0x1BA1 JUMP JUMPDEST DUP4 PUSH1 0x40 MLOAD DUP4 PUSH4 0xFFFFFFFF AND PUSH1 0xE0 SHL DUP2 MSTORE PUSH1 0x4 ADD DUP1 DUP4 PUSH1 0x1 PUSH1 0x1 PUSH1 0xA0 SHL SUB AND PUSH1 0x1 PUSH1 0x1 PUSH1 0xA0 SHL SUB AND DUP2 MSTORE PUSH1 0x20 ADD DUP3 DUP2 MSTORE PUSH1 0x20 ADD SWAP3 POP POP POP PUSH1 0x20 PUSH1 0x40 MLOAD DUP1 DUP4 SUB DUP2 PUSH1 0x0 DUP8 DUP1 EXTCODESIZE ISZERO DUP1 ISZERO PUSH2 0xCE9 JUMPI PUSH1 0x0 DUP1 REVERT JUMPDEST POP GAS CALL ISZERO DUP1 ISZERO PUSH2 0xCFD JUMPI RETURNDATASIZE PUSH1 0x0 DUP1 RETURNDATACOPY RETURNDATASIZE PUSH1 0x0 REVERT JUMPDEST POP POP POP POP PUSH1 0x40 MLOAD RETURNDATASIZE PUSH1 0x20 DUP2 LT ISZERO PUSH2 0xD13 JUMPI PUSH1 0x0 DUP1 REVERT JUMPDEST POP PUSH2 0xD1E SWAP1 POP PUSH2 0x1B52 JUMP JUMPDEST PUSH1 0x40 DUP1 MLOAD PUSH4 0x173ABA71 PUSH1 0xE2 SHL DUP2 MSTORE PUSH1 0x1 PUSH1 0x1 PUSH1 0xA0 SHL SUB DUP6 DUP2 AND PUSH1 0x4 DUP4 ADD MSTORE PUSH1 0x24 DUP3 ADD DUP6 SWAP1 MSTORE ADDRESS PUSH1 0x44 DUP4 ADD MSTORE SWAP2 MLOAD SWAP3 SWAP1 SWAP2 AND SWAP2 PUSH4 0x5CEAE9C4 SWAP2 PUSH1 0x64 DUP1 DUP3 ADD SWAP3 PUSH1 0x0 SWAP3 SWAP1 SWAP2 SWAP1 DUP3 SWAP1 SUB ADD DUP2 DUP4 DUP8 DUP1 EXTCODESIZE ISZERO DUP1 ISZERO PUSH2 0xD77 JUMPI PUSH1 0x0 DUP1 REVERT JUMPDEST POP GAS CALL ISZERO DUP1 ISZERO PUSH2 0xD8B JUMPI RETURNDATASIZE PUSH1 0x0 DUP1 RETURNDATACOPY RETURNDATASIZE PUSH1 0x0 REVERT JUMPDEST POP POP POP POP POP POP JUMP JUMPDEST PUSH1 0x0 PUSH2 0xDA0 DUP5 DUP5 DUP5 PUSH2 0x1DD4 JUMP JUMPDEST PUSH2 0xE16 DUP5 PUSH2 0xDAC PUSH2 0x1CE4 JUMP JUMPDEST PUSH2 0xE11 DUP6 PUSH1 0x40 MLOAD DUP1 PUSH1 0x60 ADD PUSH1 0x40 MSTORE DUP1 PUSH1 0x28 DUP2 MSTORE PUSH1 0x20 ADD PUSH2 0x2796 PUSH1 0x28 SWAP2 CODECOPY PUSH1 0x1 PUSH1 0x1 PUSH1 0xA0 SHL SUB DUP11 AND PUSH1 0x0 SWAP1 DUP2 MSTORE PUSH1 0x1 PUSH1 0x20 MSTORE PUSH1 0x40 DUP2 KECCAK256 SWAP1 PUSH2 0xDEA PUSH2 0x1CE4 JUMP JUMPDEST PUSH1 0x1 PUSH1 0x1 PUSH1 0xA0 SHL SUB AND DUP2 MSTORE PUSH1 0x20 DUP2 ADD SWAP2 SWAP1 SWAP2 MSTORE PUSH1 0x40 ADD PUSH1 0x0 KECCAK256 SLOAD SWAP2 SWAP1 PUSH4 0xFFFFFFFF PUSH2 0x1F3B AND JUMP JUMPDEST PUSH2 0x1CE8 JUMP JUMPDEST POP PUSH1 0x1 SWAP4 SWAP3 POP POP POP JUMP JUMPDEST PUSH1 0x0 PUSH2 0x9A2 PUSH2 0xE2D PUSH2 0xBD1 JUMP JUMPDEST PUSH2 0xE41 PUSH2 0xE39 DUP6 PUSH2 0x1214 JUMP JUMPDEST PUSH2 0xE41 PUSH2 0x9A8 JUMP JUMPDEST SWAP1 PUSH4 0xFFFFFFFF PUSH2 0x1FD2 AND JUMP JUMPDEST PUSH1 0x0 PUSH2 0xE72 PUSH2 0xE5A PUSH2 0xBD1 JUMP JUMPDEST PUSH2 0xE66 DUP5 PUSH2 0xE41 PUSH2 0x1664 JUMP JUMPDEST SWAP1 PUSH4 0xFFFFFFFF PUSH2 0x2032 AND JUMP JUMPDEST SWAP1 POP PUSH2 0xE7E CALLER DUP4 PUSH2 0x2074 JUMP JUMPDEST PUSH2 0xE87 DUP2 PUSH2 0x217C JUMP JUMPDEST PUSH1 0x5 SLOAD PUSH2 0x8EF SWAP1 PUSH2 0x100 SWAP1 DIV PUSH1 0x1 PUSH1 0x1 PUSH1 0xA0 SHL SUB AND CALLER DUP4 PUSH2 0x1C92 JUMP JUMPDEST PUSH1 0x6 SLOAD PUSH1 0x1 PUSH1 0x1 PUSH1 0xA0 SHL SUB AND CALLER EQ PUSH2 0xEF0 JUMPI PUSH1 0x40 DUP1 MLOAD PUSH3 0x461BCD PUSH1 0xE5 SHL DUP2 MSTORE PUSH1 0x20 PUSH1 0x4 DUP3 ADD MSTORE PUSH1 0xB PUSH1 0x24 DUP3 ADD MSTORE PUSH11 0x21676F7665726E616E6365 PUSH1 0xA8 SHL PUSH1 0x44 DUP3 ADD MSTORE SWAP1 MLOAD SWAP1 DUP2 SWAP1 SUB PUSH1 0x64 ADD SWAP1 REVERT JUMPDEST PUSH1 0x9 SSTORE JUMP JUMPDEST PUSH1 0x5 SLOAD PUSH1 0xFF AND SWAP1 JUMP JUMPDEST PUSH1 0x0 PUSH2 0x99E PUSH2 0xF0B PUSH2 0x1CE4 JUMP JUMPDEST DUP5 PUSH2 0xE11 DUP6 PUSH1 0x1 PUSH1 0x0 PUSH2 0xF1C PUSH2 0x1CE4 JUMP JUMPDEST PUSH1 0x1 PUSH1 0x1 PUSH1 0xA0 SHL SUB SWAP1 DUP2 AND DUP3 MSTORE PUSH1 0x20 DUP1 DUP4 ADD SWAP4 SWAP1 SWAP4 MSTORE PUSH1 0x40 SWAP2 DUP3 ADD PUSH1 0x0 SWAP1 DUP2 KECCAK256 SWAP2 DUP13 AND DUP2 MSTORE SWAP3 MSTORE SWAP1 KECCAK256 SLOAD SWAP1 PUSH4 0xFFFFFFFF PUSH2 0x2222 AND JUMP JUMPDEST PUSH1 0x0 PUSH2 0xF64 PUSH2 0xF5F PUSH2 0x118D JUMP JUMPDEST PUSH2 0xB3E JUMP JUMPDEST SWAP1 POP SWAP1 JUMP JUMPDEST PUSH1 0x6 SLOAD PUSH1 0x1 PUSH1 0x1 PUSH1 0xA0 SHL SUB AND DUP2 JUMP JUMPDEST PUSH1 0x0 DUP1 PUSH1 0x0 DUP1 PUSH1 0x0 PUSH2 0xF88 PUSH2 0x1B52 JUMP JUMPDEST PUSH1 0x1 PUSH1 0x1 PUSH1 0xA0 SHL SUB AND PUSH4 0xBF92857C ADDRESS PUSH1 0x40 MLOAD DUP3 PUSH4 0xFFFFFFFF AND PUSH1 0xE0 SHL DUP2 MSTORE PUSH1 0x4 ADD DUP1 DUP3 PUSH1 0x1 PUSH1 0x1 PUSH1 0xA0 SHL SUB AND PUSH1 0x1 PUSH1 0x1 PUSH1 0xA0 SHL SUB AND DUP2 MSTORE PUSH1 0x20 ADD SWAP2 POP POP PUSH2 0x100 PUSH1 0x40 MLOAD DUP1 DUP4 SUB DUP2 DUP7 DUP1 EXTCODESIZE ISZERO DUP1 ISZERO PUSH2 0xFDE JUMPI PUSH1 0x0 DUP1 REVERT JUMPDEST POP GAS STATICCALL ISZERO DUP1 ISZERO PUSH2 0xFF2 JUMPI RETURNDATASIZE PUSH1 0x0 DUP1 RETURNDATACOPY RETURNDATASIZE PUSH1 0x0 REVERT JUMPDEST POP POP POP POP PUSH1 0x40 MLOAD RETURNDATASIZE PUSH2 0x100 DUP2 LT ISZERO PUSH2 0x1009 JUMPI PUSH1 0x0 DUP1 REVERT JUMPDEST POP PUSH1 0x40 DUP2 ADD MLOAD PUSH1 0x80 SWAP1 SWAP2 ADD MLOAD SWAP1 SWAP3 POP SWAP1 POP PUSH1 0x0 PUSH2 0x102C DUP4 DUP4 PUSH4 0xFFFFFFFF PUSH2 0x2222 AND JUMP JUMPDEST SWAP1 POP PUSH2 0x1043 PUSH1 0x9 SLOAD DUP3 PUSH2 0x2032 SWAP1 SWAP2 SWAP1 PUSH4 0xFFFFFFFF AND JUMP JUMPDEST SWAP6 POP SWAP2 SWAP4 POP SWAP2 POP POP SWAP1 SWAP2 SWAP3 JUMP JUMPDEST PUSH1 0xB SLOAD DUP2 JUMP JUMPDEST PUSH1 0x0 DUP1 PUSH2 0x1061 PUSH2 0x17BB JUMP JUMPDEST SWAP1 POP PUSH1 0x0 PUSH2 0x106E DUP5 PUSH2 0x1A01 JUMP JUMPDEST SWAP1 POP PUSH1 0x0 DUP1 PUSH2 0x107B PUSH2 0xF78 JUMP JUMPDEST POP SWAP1 SWAP3 POP SWAP1 POP PUSH2 0x1097 PUSH1 0x64 PUSH2 0xE66 DUP5 PUSH1 0x69 PUSH4 0xFFFFFFFF PUSH2 0x1FD2 AND JUMP JUMPDEST SWAP2 POP DUP2 DUP4 GT ISZERO PUSH2 0x10AA JUMPI PUSH1 0x0 SWAP2 POP PUSH2 0x10BD JUMP JUMPDEST PUSH2 0x10BA DUP3 DUP5 PUSH4 0xFFFFFFFF PUSH2 0x227C AND JUMP JUMPDEST SWAP2 POP JUMPDEST DUP1 DUP3 LT ISZERO PUSH2 0x1180 JUMPI PUSH1 0x0 PUSH2 0x10EB DUP3 PUSH2 0xE66 PUSH2 0x10DE DUP3 DUP8 PUSH4 0xFFFFFFFF PUSH2 0x227C AND JUMP JUMPDEST DUP6 SWAP1 PUSH4 0xFFFFFFFF PUSH2 0x1FD2 AND JUMP JUMPDEST SWAP1 POP PUSH2 0x1173 PUSH2 0x10F8 PUSH2 0x1B36 JUMP JUMPDEST PUSH2 0xE66 DUP8 PUSH1 0x1 PUSH1 0x1 PUSH1 0xA0 SHL SUB AND PUSH4 0x313CE567 PUSH1 0x40 MLOAD DUP2 PUSH4 0xFFFFFFFF AND PUSH1 0xE0 SHL DUP2 MSTORE PUSH1 0x4 ADD PUSH1 0x20 PUSH1 0x40 MLOAD DUP1 DUP4 SUB DUP2 DUP7 DUP1 EXTCODESIZE ISZERO DUP1 ISZERO PUSH2 0x1134 JUMPI PUSH1 0x0 DUP1 REVERT JUMPDEST POP GAS STATICCALL ISZERO DUP1 ISZERO PUSH2 0x1148 JUMPI RETURNDATASIZE PUSH1 0x0 DUP1 RETURNDATACOPY RETURNDATASIZE PUSH1 0x0 REVERT JUMPDEST POP POP POP POP PUSH1 0x40 MLOAD RETURNDATASIZE PUSH1 0x20 DUP2 LT ISZERO PUSH2 0x115E JUMPI PUSH1 0x0 DUP1 REVERT JUMPDEST POP MLOAD DUP5 SWAP1 PUSH1 0xFF AND PUSH1 0xA EXP PUSH4 0xFFFFFFFF PUSH2 0x1FD2 AND JUMP JUMPDEST SWAP6 POP PUSH2 0xBCC SWAP5 POP POP POP POP POP JUMP JUMPDEST PUSH1 0x0 SWAP5 POP POP POP POP POP PUSH2 0xBCC JUMP JUMPDEST PUSH1 0x0 PUSH1 0x5 PUSH1 0x1 SWAP1 SLOAD SWAP1 PUSH2 0x100 EXP SWAP1 DIV PUSH1 0x1 PUSH1 0x1 PUSH1 0xA0 SHL SUB AND PUSH1 0x1 PUSH1 0x1 PUSH1 0xA0 SHL SUB AND PUSH4 0x89D1A0FC PUSH1 0x40 MLOAD DUP2 PUSH4 0xFFFFFFFF AND PUSH1 0xE0 SHL DUP2 MSTORE PUSH1 0x4 ADD PUSH1 0x20 PUSH1 0x40 MLOAD DUP1 DUP4 SUB DUP2 DUP7 DUP1 EXTCODESIZE ISZERO DUP1 ISZERO PUSH2 0x11DD JUMPI PUSH1 0x0 DUP1 REVERT JUMPDEST POP GAS STATICCALL ISZERO DUP1 ISZERO PUSH2 0x11F1 JUMPI RETURNDATASIZE PUSH1 0x0 DUP1 RETURNDATACOPY RETURNDATASIZE PUSH1 0x0 REVERT JUMPDEST POP POP POP POP PUSH1 0x40 MLOAD RETURNDATASIZE PUSH1 0x20 DUP2 LT ISZERO PUSH2 0x1207 JUMPI PUSH1 0x0 DUP1 REVERT JUMPDEST POP MLOAD SWAP1 POP SWAP1 JUMP JUMPDEST PUSH1 0xA SLOAD DUP2 JUMP JUMPDEST PUSH1 0x1 PUSH1 0x1 PUSH1 0xA0 SHL SUB AND PUSH1 0x0 SWAP1 DUP2 MSTORE PUSH1 0x20 DUP2 SWAP1 MSTORE PUSH1 0x40 SWAP1 KECCAK256 SLOAD SWAP1 JUMP JUMPDEST PUSH1 0x0 PUSH2 0xF64 PUSH2 0x123C PUSH2 0xBD1 JUMP JUMPDEST PUSH2 0xE66 PUSH8 0xDE0B6B3A7640000 PUSH2 0xE41 PUSH2 0x1664 JUMP JUMPDEST PUSH2 0x125A PUSH1 0x0 PUSH2 0x217C JUMP JUMPDEST JUMP JUMPDEST PUSH1 0x0 PUSH2 0x1268 PUSH1 0x0 PUSH2 0x1056 JUMP JUMPDEST POP SWAP1 JUMP JUMPDEST PUSH20 0x24A42FD28C976A61DF5D00D0599C34C4F90748C8 DUP2 JUMP JUMPDEST PUSH2 0x125A PUSH2 0x1290 CALLER PUSH2 0x1214 JUMP JUMPDEST PUSH2 0xE4D JUMP JUMPDEST PUSH1 0x8 SLOAD DUP2 JUMP JUMPDEST PUSH1 0x0 DUP1 PUSH2 0x12A6 PUSH2 0x17BB JUMP JUMPDEST SWAP1 POP PUSH1 0x0 PUSH2 0x12B2 PUSH2 0x15F5 JUMP JUMPDEST SWAP1 POP DUP1 ISZERO PUSH2 0x130A JUMPI PUSH2 0x1301 PUSH2 0x12C5 PUSH2 0x1B36 JUMP JUMPDEST PUSH2 0xE66 DUP5 PUSH1 0x1 PUSH1 0x1 PUSH1 0xA0 SHL SUB AND PUSH4 0x313CE567 PUSH1 0x40 MLOAD DUP2 PUSH4 0xFFFFFFFF AND PUSH1 0xE0 SHL DUP2 MSTORE PUSH1 0x4 ADD PUSH1 0x20 PUSH1 0x40 MLOAD DUP1 DUP4 SUB DUP2 DUP7 DUP1 EXTCODESIZE ISZERO DUP1 ISZERO PUSH2 0x1134 JUMPI PUSH1 0x0 DUP1 REVERT JUMPDEST SWAP3 POP POP POP PUSH2 0x987 JUMP JUMPDEST PUSH1 0x0 SWAP3 POP POP POP PUSH2 0x987 JUMP JUMPDEST PUSH1 0x6 SLOAD PUSH1 0x1 PUSH1 0x1 PUSH1 0xA0 SHL SUB AND CALLER EQ PUSH2 0x1362 JUMPI PUSH1 0x40 DUP1 MLOAD PUSH3 0x461BCD PUSH1 0xE5 SHL DUP2 MSTORE PUSH1 0x20 PUSH1 0x4 DUP3 ADD MSTORE PUSH1 0xB PUSH1 0x24 DUP3 ADD MSTORE PUSH11 0x21676F7665726E616E6365 PUSH1 0xA8 SHL PUSH1 0x44 DUP3 ADD MSTORE SWAP1 MLOAD SWAP1 DUP2 SWAP1 SUB PUSH1 0x64 ADD SWAP1 REVERT JUMPDEST PUSH1 0x7 DUP1 SLOAD PUSH1 0x1 PUSH1 0x1 PUSH1 0xA0 SHL SUB NOT AND PUSH1 0x1 PUSH1 0x1 PUSH1 0xA0 SHL SUB SWAP3 SWAP1 SWAP3 AND SWAP2 SWAP1 SWAP2 OR SWAP1 SSTORE JUMP JUMPDEST PUSH1 0x4 DUP1 SLOAD PUSH1 0x40 DUP1 MLOAD PUSH1 0x20 PUSH1 0x1F PUSH1 0x2 PUSH1 0x0 NOT PUSH2 0x100 PUSH1 0x1 DUP9 AND ISZERO MUL ADD SWAP1 SWAP6 AND SWAP5 SWAP1 SWAP5 DIV SWAP4 DUP5 ADD DUP2 SWAP1 DIV DUP2 MUL DUP3 ADD DUP2 ADD SWAP1 SWAP3 MSTORE DUP3 DUP2 MSTORE PUSH1 0x60 SWAP4 SWAP1 SWAP3 SWAP1 SWAP2 DUP4 ADD DUP3 DUP3 DUP1 ISZERO PUSH2 0x97F JUMPI DUP1 PUSH1 0x1F LT PUSH2 0x954 JUMPI PUSH2 0x100 DUP1 DUP4 SLOAD DIV MUL DUP4 MSTORE SWAP2 PUSH1 0x20 ADD SWAP2 PUSH2 0x97F JUMP JUMPDEST PUSH1 0x0 PUSH20 0x24A42FD28C976A61DF5D00D0599C34C4F90748C8 PUSH1 0x1 PUSH1 0x1 PUSH1 0xA0 SHL SUB AND PUSH4 0xFCA513A8 PUSH1 0x40 MLOAD DUP2 PUSH4 0xFFFFFFFF AND PUSH1 0xE0 SHL DUP2 MSTORE PUSH1 0x4 ADD PUSH1 0x20 PUSH1 0x40 MLOAD DUP1 DUP4 SUB DUP2 DUP7 DUP1 EXTCODESIZE ISZERO DUP1 ISZERO PUSH2 0x11DD JUMPI PUSH1 0x0 DUP1 REVERT JUMPDEST PUSH1 0x7 SLOAD PUSH1 0x40 DUP1 MLOAD PUSH4 0x70A08231 PUSH1 0xE0 SHL DUP2 MSTORE ADDRESS PUSH1 0x4 DUP3 ADD MSTORE SWAP1 MLOAD PUSH1 0x0 SWAP3 PUSH1 0x1 PUSH1 0x1 PUSH1 0xA0 SHL SUB AND SWAP2 PUSH4 0x70A08231 SWAP2 PUSH1 0x24 DUP1 DUP4 ADD SWAP3 PUSH1 0x20 SWAP3 SWAP2 SWAP1 DUP3 SWAP1 SUB ADD DUP2 DUP7 DUP1 EXTCODESIZE ISZERO DUP1 ISZERO PUSH2 0x11DD JUMPI PUSH1 0x0 DUP1 REVERT JUMPDEST PUSH1 0x0 PUSH2 0x99E PUSH2 0x148C PUSH2 0x1CE4 JUMP JUMPDEST DUP5 PUSH2 0xE11 DUP6 PUSH1 0x40 MLOAD DUP1 PUSH1 0x60 ADD PUSH1 0x40 MSTORE DUP1 PUSH1 0x25 DUP2 MSTORE PUSH1 0x20 ADD PUSH2 0x2852 PUSH1 0x25 SWAP2 CODECOPY PUSH1 0x1 PUSH1 0x0 PUSH2 0x14B6 PUSH2 0x1CE4 JUMP JUMPDEST PUSH1 0x1 PUSH1 0x1 PUSH1 0xA0 SHL SUB SWAP1 DUP2 AND DUP3 MSTORE PUSH1 0x20 DUP1 DUP4 ADD SWAP4 SWAP1 SWAP4 MSTORE PUSH1 0x40 SWAP2 DUP3 ADD PUSH1 0x0 SWAP1 DUP2 KECCAK256 SWAP2 DUP14 AND DUP2 MSTORE SWAP3 MSTORE SWAP1 KECCAK256 SLOAD SWAP2 SWAP1 PUSH4 0xFFFFFFFF PUSH2 0x1F3B AND JUMP JUMPDEST PUSH1 0x7 SLOAD PUSH1 0x1 PUSH1 0x1 PUSH1 0xA0 SHL SUB AND CALLER EQ PUSH2 0x153A JUMPI PUSH1 0x40 DUP1 MLOAD PUSH3 0x461BCD PUSH1 0xE5 SHL DUP2 MSTORE PUSH1 0x20 PUSH1 0x4 DUP3 ADD MSTORE PUSH1 0xB PUSH1 0x24 DUP3 ADD MSTORE PUSH11 0x10B1B7B73A3937B63632B9 PUSH1 0xA9 SHL PUSH1 0x44 DUP3 ADD MSTORE SWAP1 MLOAD SWAP1 DUP2 SWAP1 SUB PUSH1 0x64 ADD SWAP1 REVERT JUMPDEST PUSH1 0x7 SLOAD PUSH1 0x8 SLOAD PUSH1 0x5 SLOAD PUSH2 0x1560 SWAP3 PUSH1 0x1 PUSH1 0x1 PUSH1 0xA0 SHL SUB PUSH2 0x100 SWAP1 SWAP3 DIV DUP3 AND SWAP3 SWAP2 AND SWAP1 PUSH2 0x1C92 JUMP JUMPDEST PUSH1 0x0 PUSH1 0x8 SSTORE JUMP JUMPDEST PUSH1 0x0 PUSH2 0x99E PUSH2 0x1574 PUSH2 0x1CE4 JUMP JUMPDEST DUP5 DUP5 PUSH2 0x1DD4 JUMP JUMPDEST PUSH1 0x6 SLOAD PUSH1 0x1 PUSH1 0x1 PUSH1 0xA0 SHL SUB AND CALLER EQ PUSH2 0x15C8 JUMPI PUSH1 0x40 DUP1 MLOAD PUSH3 0x461BCD PUSH1 0xE5 SHL DUP2 MSTORE PUSH1 0x20 PUSH1 0x4 DUP3 ADD MSTORE PUSH1 0xB PUSH1 0x24 DUP3 ADD MSTORE PUSH11 0x21676F7665726E616E6365 PUSH1 0xA8 SHL PUSH1 0x44 DUP3 ADD MSTORE SWAP1 MLOAD SWAP1 DUP2 SWAP1 SUB PUSH1 0x64 ADD SWAP1 REVERT JUMPDEST PUSH1 0x6 DUP1 SLOAD PUSH1 0x1 PUSH1 0x1 PUSH1 0xA0 SHL SUB NOT AND PUSH1 0x1 PUSH1 0x1 PUSH1 0xA0 SHL SUB SWAP3 SWAP1 SWAP3 AND SWAP2 SWAP1 SWAP2 OR SWAP1 SSTORE JUMP JUMPDEST PUSH1 0x0 DUP1 PUSH2 0xBE2 PUSH2 0x125C JUMP JUMPDEST PUSH1 0x0 DUP1 PUSH1 0x0 DUP1 PUSH2 0x1603 PUSH2 0xF78 JUMP JUMPDEST SWAP2 SWAP5 POP SWAP3 POP SWAP1 POP PUSH2 0x1620 PUSH1 0x64 PUSH2 0xE66 DUP6 PUSH1 0x5F PUSH4 0xFFFFFFFF PUSH2 0x1FD2 AND JUMP JUMPDEST SWAP3 POP DUP2 DUP4 GT ISZERO PUSH2 0x1658 JUMPI PUSH2 0x164E DUP2 PUSH2 0xE66 PUSH2 0x1641 DUP7 DUP7 PUSH4 0xFFFFFFFF PUSH2 0x227C AND JUMP JUMPDEST DUP5 SWAP1 PUSH4 0xFFFFFFFF PUSH2 0x1FD2 AND JUMP JUMPDEST SWAP4 POP POP POP POP PUSH2 0x987 JUMP JUMPDEST PUSH1 0x0 SWAP4 POP POP POP POP PUSH2 0x987 JUMP JUMPDEST PUSH1 0x0 PUSH2 0xF64 PUSH1 0x8 SLOAD PUSH1 0x5 PUSH1 0x1 SWAP1 SLOAD SWAP1 PUSH2 0x100 EXP SWAP1 DIV PUSH1 0x1 PUSH1 0x1 PUSH1 0xA0 SHL SUB AND PUSH1 0x1 PUSH1 0x1 PUSH1 0xA0 SHL SUB AND PUSH4 0x70A08231 ADDRESS PUSH1 0x40 MLOAD DUP3 PUSH4 0xFFFFFFFF AND PUSH1 0xE0 SHL DUP2 MSTORE PUSH1 0x4 ADD DUP1 DUP3 PUSH1 0x1 PUSH1 0x1 PUSH1 0xA0 SHL SUB AND PUSH1 0x1 PUSH1 0x1 PUSH1 0xA0 SHL SUB AND DUP2 MSTORE PUSH1 0x20 ADD SWAP2 POP POP PUSH1 0x20 PUSH1 0x40 MLOAD DUP1 DUP4 SUB DUP2 DUP7 DUP1 EXTCODESIZE ISZERO DUP1 ISZERO PUSH2 0x16D7 JUMPI PUSH1 0x0 DUP1 REVERT JUMPDEST POP GAS STATICCALL ISZERO DUP1 ISZERO PUSH2 0x16EB JUMPI RETURNDATASIZE PUSH1 0x0 DUP1 RETURNDATACOPY RETURNDATASIZE PUSH1 0x0 REVERT JUMPDEST POP POP POP POP PUSH1 0x40 MLOAD RETURNDATASIZE PUSH1 0x20 DUP2 LT ISZERO PUSH2 0x1701 JUMPI PUSH1 0x0 DUP1 REVERT JUMPDEST POP MLOAD SWAP1 PUSH4 0xFFFFFFFF PUSH2 0x227C AND JUMP JUMPDEST PUSH1 0x0 PUSH2 0x1719 PUSH2 0x1664 JUMP JUMPDEST PUSH1 0x5 SLOAD SWAP1 SWAP2 POP PUSH2 0x1739 SWAP1 PUSH2 0x100 SWAP1 DIV PUSH1 0x1 PUSH1 0x1 PUSH1 0xA0 SHL SUB AND CALLER ADDRESS DUP6 PUSH2 0x22BE JUMP JUMPDEST PUSH1 0x0 PUSH2 0x1752 PUSH2 0x2710 PUSH2 0xE66 DUP6 PUSH1 0x32 PUSH4 0xFFFFFFFF PUSH2 0x1FD2 AND JUMP JUMPDEST SWAP1 POP PUSH2 0x1764 DUP4 DUP3 PUSH4 0xFFFFFFFF PUSH2 0x227C AND JUMP JUMPDEST PUSH1 0x8 SLOAD SWAP1 SWAP4 POP PUSH2 0x177A SWAP1 DUP3 PUSH4 0xFFFFFFFF PUSH2 0x2222 AND JUMP JUMPDEST PUSH1 0x8 SSTORE PUSH1 0x0 PUSH2 0x1787 PUSH2 0xBD1 JUMP JUMPDEST PUSH2 0x1792 JUMPI POP DUP3 PUSH2 0x17B1 JUMP JUMPDEST PUSH2 0x17AE DUP4 PUSH2 0xE66 PUSH2 0x17A1 PUSH2 0xBD1 JUMP JUMPDEST DUP8 SWAP1 PUSH4 0xFFFFFFFF PUSH2 0x1FD2 AND JUMP JUMPDEST SWAP1 POP JUMPDEST PUSH2 0xB38 CALLER DUP3 PUSH2 0x2318 JUMP JUMPDEST PUSH1 0x7 SLOAD PUSH1 0x40 DUP1 MLOAD PUSH4 0x75724589 PUSH1 0xE0 SHL DUP2 MSTORE ADDRESS PUSH1 0x4 DUP3 ADD MSTORE SWAP1 MLOAD PUSH1 0x0 SWAP3 PUSH1 0x1 PUSH1 0x1 PUSH1 0xA0 SHL SUB AND SWAP2 PUSH4 0x75724589 SWAP2 PUSH1 0x24 DUP1 DUP4 ADD SWAP3 PUSH1 0x20 SWAP3 SWAP2 SWAP1 DUP3 SWAP1 SUB ADD DUP2 DUP7 DUP1 EXTCODESIZE ISZERO DUP1 ISZERO PUSH2 0x11DD JUMPI PUSH1 0x0 DUP1 REVERT JUMPDEST PUSH1 0x0 PUSH2 0xF64 PUSH2 0x1813 PUSH2 0x9A8 JUMP JUMPDEST PUSH2 0xE66 PUSH8 0xDE0B6B3A7640000 PUSH2 0xE41 PUSH2 0x1434 JUMP JUMPDEST PUSH1 0x0 PUSH2 0x1831 PUSH2 0x17BB JUMP JUMPDEST SWAP1 POP PUSH1 0x0 PUSH2 0x183D PUSH2 0x129B JUMP JUMPDEST SWAP1 POP DUP1 ISZERO PUSH2 0x18C7 JUMPI PUSH2 0x184D PUSH2 0x1B52 JUMP JUMPDEST PUSH1 0x40 DUP1 MLOAD PUSH4 0xC858F5F9 PUSH1 0xE0 SHL DUP2 MSTORE PUSH1 0x1 PUSH1 0x1 PUSH1 0xA0 SHL SUB DUP6 DUP2 AND PUSH1 0x4 DUP4 ADD MSTORE PUSH1 0x24 DUP3 ADD DUP6 SWAP1 MSTORE PUSH1 0x2 PUSH1 0x44 DUP4 ADD MSTORE PUSH1 0x7 PUSH1 0x64 DUP4 ADD MSTORE SWAP2 MLOAD SWAP3 SWAP1 SWAP2 AND SWAP2 PUSH4 0xC858F5F9 SWAP2 PUSH1 0x84 DUP1 DUP3 ADD SWAP3 PUSH1 0x0 SWAP3 SWAP1 SWAP2 SWAP1 DUP3 SWAP1 SUB ADD DUP2 DUP4 DUP8 DUP1 EXTCODESIZE ISZERO DUP1 ISZERO PUSH2 0x18AE JUMPI PUSH1 0x0 DUP1 REVERT JUMPDEST POP GAS CALL ISZERO DUP1 ISZERO PUSH2 0x18C2 JUMPI RETURNDATASIZE PUSH1 0x0 DUP1 RETURNDATACOPY RETURNDATASIZE PUSH1 0x0 REVERT JUMPDEST POP POP POP POP JUMPDEST PUSH1 0x40 DUP1 MLOAD PUSH4 0x70A08231 PUSH1 0xE0 SHL DUP2 MSTORE ADDRESS PUSH1 0x4 DUP3 ADD MSTORE SWAP1 MLOAD PUSH1 0x0 SWAP2 PUSH1 0x1 PUSH1 0x1 PUSH1 0xA0 SHL SUB DUP6 AND SWAP2 PUSH4 0x70A08231 SWAP2 PUSH1 0x24 DUP1 DUP3 ADD SWAP3 PUSH1 0x20 SWAP3 SWAP1 SWAP2 SWAP1 DUP3 SWAP1 SUB ADD DUP2 DUP7 DUP1 EXTCODESIZE ISZERO DUP1 ISZERO PUSH2 0x1911 JUMPI PUSH1 0x0 DUP1 REVERT JUMPDEST POP GAS STATICCALL ISZERO DUP1 ISZERO PUSH2 0x1925 JUMPI RETURNDATASIZE PUSH1 0x0 DUP1 RETURNDATACOPY RETURNDATASIZE PUSH1 0x0 REVERT JUMPDEST POP POP POP POP PUSH1 0x40 MLOAD RETURNDATASIZE PUSH1 0x20 DUP2 LT ISZERO PUSH2 0x193B JUMPI PUSH1 0x0 DUP1 REVERT JUMPDEST POP MLOAD SWAP1 POP DUP1 ISZERO PUSH2 0x19D1 JUMPI PUSH1 0x7 SLOAD PUSH2 0x1965 SWAP1 PUSH1 0x1 PUSH1 0x1 PUSH1 0xA0 SHL SUB DUP6 DUP2 AND SWAP2 AND DUP4 PUSH4 0xFFFFFFFF PUSH2 0x1C92 AND JUMP JUMPDEST PUSH1 0x7 SLOAD PUSH1 0x40 DUP1 MLOAD PUSH4 0xB02BF4B9 PUSH1 0xE0 SHL DUP2 MSTORE ADDRESS PUSH1 0x4 DUP3 ADD MSTORE PUSH1 0x24 DUP2 ADD DUP5 SWAP1 MSTORE SWAP1 MLOAD PUSH1 0x1 PUSH1 0x1 PUSH1 0xA0 SHL SUB SWAP1 SWAP3 AND SWAP2 PUSH4 0xB02BF4B9 SWAP2 PUSH1 0x44 DUP1 DUP3 ADD SWAP3 PUSH1 0x0 SWAP3 SWAP1 SWAP2 SWAP1 DUP3 SWAP1 SUB ADD DUP2 DUP4 DUP8 DUP1 EXTCODESIZE ISZERO DUP1 ISZERO PUSH2 0x19B8 JUMPI PUSH1 0x0 DUP1 REVERT JUMPDEST POP GAS CALL ISZERO DUP1 ISZERO PUSH2 0x19CC JUMPI RETURNDATASIZE PUSH1 0x0 DUP1 RETURNDATACOPY RETURNDATASIZE PUSH1 0x0 REVERT JUMPDEST POP POP POP POP JUMPDEST POP POP POP JUMP JUMPDEST PUSH1 0x1 PUSH1 0x1 PUSH1 0xA0 SHL SUB SWAP2 DUP3 AND PUSH1 0x0 SWAP1 DUP2 MSTORE PUSH1 0x1 PUSH1 0x20 SWAP1 DUP2 MSTORE PUSH1 0x40 DUP1 DUP4 KECCAK256 SWAP4 SWAP1 SWAP5 AND DUP3 MSTORE SWAP2 SWAP1 SWAP2 MSTORE KECCAK256 SLOAD SWAP1 JUMP JUMPDEST PUSH1 0x0 PUSH2 0x1A91 PUSH1 0x5 PUSH1 0x1 SWAP1 SLOAD SWAP1 PUSH2 0x100 EXP SWAP1 DIV PUSH1 0x1 PUSH1 0x1 PUSH1 0xA0 SHL SUB AND PUSH1 0x1 PUSH1 0x1 PUSH1 0xA0 SHL SUB AND PUSH4 0x313CE567 PUSH1 0x40 MLOAD DUP2 PUSH4 0xFFFFFFFF AND PUSH1 0xE0 SHL DUP2 MSTORE PUSH1 0x4 ADD PUSH1 0x20 PUSH1 0x40 MLOAD DUP1 DUP4 SUB DUP2 DUP7 DUP1 EXTCODESIZE ISZERO DUP1 ISZERO PUSH2 0x1A54 JUMPI PUSH1 0x0 DUP1 REVERT JUMPDEST POP GAS STATICCALL ISZERO DUP1 ISZERO PUSH2 0x1A68 JUMPI RETURNDATASIZE PUSH1 0x0 DUP1 RETURNDATACOPY RETURNDATASIZE PUSH1 0x0 REVERT JUMPDEST POP POP POP POP PUSH1 0x40 MLOAD RETURNDATASIZE PUSH1 0x20 DUP2 LT ISZERO PUSH2 0x1A7E JUMPI PUSH1 0x0 DUP1 REVERT JUMPDEST POP MLOAD PUSH1 0xFF AND PUSH1 0xA EXP PUSH2 0xE66 PUSH2 0x10DE PUSH2 0xF52 JUMP JUMPDEST SWAP2 POP PUSH2 0x9A2 PUSH1 0x9 SLOAD PUSH2 0xE66 PUSH1 0xB SLOAD PUSH2 0xE66 PUSH1 0xA SLOAD DUP8 PUSH2 0x1FD2 SWAP1 SWAP2 SWAP1 PUSH4 0xFFFFFFFF AND JUMP JUMPDEST PUSH1 0x5 SLOAD PUSH1 0x40 DUP1 MLOAD PUSH4 0x70A08231 PUSH1 0xE0 SHL DUP2 MSTORE CALLER PUSH1 0x4 DUP3 ADD MSTORE SWAP1 MLOAD PUSH2 0x125A SWAP3 PUSH2 0x100 SWAP1 DIV PUSH1 0x1 PUSH1 0x1 PUSH1 0xA0 SHL SUB AND SWAP2 PUSH4 0x70A08231 SWAP2 PUSH1 0x24 DUP1 DUP4 ADD SWAP3 PUSH1 0x20 SWAP3 SWAP2 SWAP1 DUP3 SWAP1 SUB ADD DUP2 DUP7 DUP1 EXTCODESIZE ISZERO DUP1 ISZERO PUSH2 0x1B05 JUMPI PUSH1 0x0 DUP1 REVERT JUMPDEST POP GAS STATICCALL ISZERO DUP1 ISZERO PUSH2 0x1B19 JUMPI RETURNDATASIZE PUSH1 0x0 DUP1 RETURNDATACOPY RETURNDATASIZE PUSH1 0x0 REVERT JUMPDEST POP POP POP POP PUSH1 0x40 MLOAD RETURNDATASIZE PUSH1 0x20 DUP2 LT ISZERO PUSH2 0x1B2F JUMPI PUSH1 0x0 DUP1 REVERT JUMPDEST POP MLOAD PUSH2 0x170F JUMP JUMPDEST PUSH1 0x0 PUSH2 0xF64 PUSH2 0xF5F PUSH2 0x17BB JUMP JUMPDEST PUSH1 0x7 SLOAD PUSH1 0x1 PUSH1 0x1 PUSH1 0xA0 SHL SUB AND DUP2 JUMP JUMPDEST PUSH1 0x0 PUSH20 0x24A42FD28C976A61DF5D00D0599C34C4F90748C8 PUSH1 0x1 PUSH1 0x1 PUSH1 0xA0 SHL SUB AND PUSH4 0x261BF8B PUSH1 0x40 MLOAD DUP2 PUSH4 0xFFFFFFFF AND PUSH1 0xE0 SHL DUP2 MSTORE PUSH1 0x4 ADD PUSH1 0x20 PUSH1 0x40 MLOAD DUP1 DUP4 SUB DUP2 DUP7 DUP1 EXTCODESIZE ISZERO DUP1 ISZERO PUSH2 0x11DD JUMPI PUSH1 0x0 DUP1 REVERT JUMPDEST PUSH1 0x0 PUSH20 0x24A42FD28C976A61DF5D00D0599C34C4F90748C8 PUSH1 0x1 PUSH1 0x1 PUSH1 0xA0 SHL SUB AND PUSH4 0xED6FF760 PUSH1 0x40 MLOAD DUP2 PUSH4 0xFFFFFFFF AND PUSH1 0xE0 SHL DUP2 MSTORE PUSH1 0x4 ADD PUSH1 0x20 PUSH1 0x40 MLOAD DUP1 DUP4 SUB DUP2 DUP7 DUP1 EXTCODESIZE ISZERO DUP1 ISZERO PUSH2 0x11DD JUMPI PUSH1 0x0 DUP1 REVERT JUMPDEST PUSH1 0x0 PUSH2 0x1BFA PUSH2 0x17BB JUMP JUMPDEST PUSH1 0x40 DUP1 MLOAD PUSH4 0x70A08231 PUSH1 0xE0 SHL DUP2 MSTORE ADDRESS PUSH1 0x4 DUP3 ADD MSTORE SWAP1 MLOAD SWAP2 SWAP3 POP PUSH1 0x0 SWAP2 PUSH1 0x1 PUSH1 0x1 PUSH1 0xA0 SHL SUB DUP5 AND SWAP2 PUSH4 0x70A08231 SWAP2 PUSH1 0x24 DUP1 DUP4 ADD SWAP3 PUSH1 0x20 SWAP3 SWAP2 SWAP1 DUP3 SWAP1 SUB ADD DUP2 DUP7 DUP1 EXTCODESIZE ISZERO DUP1 ISZERO PUSH2 0x1C46 JUMPI PUSH1 0x0 DUP1 REVERT JUMPDEST POP GAS STATICCALL ISZERO DUP1 ISZERO PUSH2 0x1C5A JUMPI RETURNDATASIZE PUSH1 0x0 DUP1 RETURNDATACOPY RETURNDATASIZE PUSH1 0x0 REVERT JUMPDEST POP POP POP POP PUSH1 0x40 MLOAD RETURNDATASIZE PUSH1 0x20 DUP2 LT ISZERO PUSH2 0x1C70 JUMPI PUSH1 0x0 DUP1 REVERT JUMPDEST POP MLOAD SWAP1 POP PUSH2 0x8EF DUP3 DUP3 PUSH2 0xBEE JUMP JUMPDEST PUSH1 0x5 SLOAD PUSH2 0x100 SWAP1 DIV PUSH1 0x1 PUSH1 0x1 PUSH1 0xA0 SHL SUB AND DUP2 JUMP JUMPDEST PUSH1 0x40 DUP1 MLOAD PUSH1 0x1 PUSH1 0x1 PUSH1 0xA0 SHL SUB DUP5 AND PUSH1 0x24 DUP3 ADD MSTORE PUSH1 0x44 DUP1 DUP3 ADD DUP5 SWAP1 MSTORE DUP3 MLOAD DUP1 DUP4 SUB SWAP1 SWAP2 ADD DUP2 MSTORE PUSH1 0x64 SWAP1 SWAP2 ADD SWAP1 SWAP2 MSTORE PUSH1 0x20 DUP2 ADD DUP1 MLOAD PUSH1 0x1 PUSH1 0x1 PUSH1 0xE0 SHL SUB AND PUSH4 0xA9059CBB PUSH1 0xE0 SHL OR SWAP1 MSTORE PUSH2 0x19D1 SWAP1 DUP5 SWAP1 PUSH2 0x2414 JUMP JUMPDEST CALLER SWAP1 JUMP JUMPDEST PUSH1 0x1 PUSH1 0x1 PUSH1 0xA0 SHL SUB DUP4 AND PUSH2 0x1D2D JUMPI PUSH1 0x40 MLOAD PUSH3 0x461BCD PUSH1 0xE5 SHL DUP2 MSTORE PUSH1 0x4 ADD DUP1 DUP1 PUSH1 0x20 ADD DUP3 DUP2 SUB DUP3 MSTORE PUSH1 0x24 DUP2 MSTORE PUSH1 0x20 ADD DUP1 PUSH2 0x2804 PUSH1 0x24 SWAP2 CODECOPY PUSH1 0x40 ADD SWAP2 POP POP PUSH1 0x40 MLOAD DUP1 SWAP2 SUB SWAP1 REVERT JUMPDEST PUSH1 0x1 PUSH1 0x1 PUSH1 0xA0 SHL SUB DUP3 AND PUSH2 0x1D72 JUMPI PUSH1 0x40 MLOAD PUSH3 0x461BCD PUSH1 0xE5 SHL DUP2 MSTORE PUSH1 0x4 ADD DUP1 DUP1 PUSH1 0x20 ADD DUP3 DUP2 SUB DUP3 MSTORE PUSH1 0x22 DUP2 MSTORE PUSH1 0x20 ADD DUP1 PUSH2 0x272D PUSH1 0x22 SWAP2 CODECOPY PUSH1 0x40 ADD SWAP2 POP POP PUSH1 0x40 MLOAD DUP1 SWAP2 SUB SWAP1 REVERT JUMPDEST PUSH1 0x1 PUSH1 0x1 PUSH1 0xA0 SHL SUB DUP1 DUP5 AND PUSH1 0x0 DUP2 DUP2 MSTORE PUSH1 0x1 PUSH1 0x20 SWAP1 DUP2 MSTORE PUSH1 0x40 DUP1 DUP4 KECCAK256 SWAP5 DUP8 AND DUP1 DUP5 MSTORE SWAP5 DUP3 MSTORE SWAP2 DUP3 SWAP1 KECCAK256 DUP6 SWAP1 SSTORE DUP2 MLOAD DUP6 DUP2 MSTORE SWAP2 MLOAD PUSH32 0x8C5BE1E5EBEC7D5BD14F71427D1E84F3DD0314C0F7B2291E5B200AC8C7C3B925 SWAP3 DUP2 SWAP1 SUB SWAP1 SWAP2 ADD SWAP1 LOG3 POP POP POP JUMP JUMPDEST PUSH1 0x1 PUSH1 0x1 PUSH1 0xA0 SHL SUB DUP4 AND PUSH2 0x1E19 JUMPI PUSH1 0x40 MLOAD PUSH3 0x461BCD PUSH1 0xE5 SHL DUP2 MSTORE PUSH1 0x4 ADD DUP1 DUP1 PUSH1 0x20 ADD DUP3 DUP2 SUB DUP3 MSTORE PUSH1 0x25 DUP2 MSTORE PUSH1 0x20 ADD DUP1 PUSH2 0x27DF PUSH1 0x25 SWAP2 CODECOPY PUSH1 0x40 ADD SWAP2 POP POP PUSH1 0x40 MLOAD DUP1 SWAP2 SUB SWAP1 REVERT JUMPDEST PUSH1 0x1 PUSH1 0x1 PUSH1 0xA0 SHL SUB DUP3 AND PUSH2 0x1E5E JUMPI PUSH1 0x40 MLOAD PUSH3 0x461BCD PUSH1 0xE5 SHL DUP2 MSTORE PUSH1 0x4 ADD DUP1 DUP1 PUSH1 0x20 ADD DUP3 DUP2 SUB DUP3 MSTORE PUSH1 0x23 DUP2 MSTORE PUSH1 0x20 ADD DUP1 PUSH2 0x26E8 PUSH1 0x23 SWAP2 CODECOPY PUSH1 0x40 ADD SWAP2 POP POP PUSH1 0x40 MLOAD DUP1 SWAP2 SUB SWAP1 REVERT JUMPDEST PUSH2 0x1E69 DUP4 DUP4 DUP4 PUSH2 0x19D1 JUMP JUMPDEST PUSH2 0x1EAC DUP2 PUSH1 0x40 MLOAD DUP1 PUSH1 0x60 ADD PUSH1 0x40 MSTORE DUP1 PUSH1 0x26 DUP2 MSTORE PUSH1 0x20 ADD PUSH2 0x274F PUSH1 0x26 SWAP2 CODECOPY PUSH1 0x1 PUSH1 0x1 PUSH1 0xA0 SHL SUB DUP7 AND PUSH1 0x0 SWAP1 DUP2 MSTORE PUSH1 0x20 DUP2 SWAP1 MSTORE PUSH1 0x40 SWAP1 KECCAK256 SLOAD SWAP2 SWAP1 PUSH4 0xFFFFFFFF PUSH2 0x1F3B AND JUMP JUMPDEST PUSH1 0x1 PUSH1 0x1 PUSH1 0xA0 SHL SUB DUP1 DUP6 AND PUSH1 0x0 SWAP1 DUP2 MSTORE PUSH1 0x20 DUP2 SWAP1 MSTORE PUSH1 0x40 DUP1 DUP3 KECCAK256 SWAP4 SWAP1 SWAP4 SSTORE SWAP1 DUP5 AND DUP2 MSTORE KECCAK256 SLOAD PUSH2 0x1EE1 SWAP1 DUP3 PUSH4 0xFFFFFFFF PUSH2 0x2222 AND JUMP JUMPDEST PUSH1 0x1 PUSH1 0x1 PUSH1 0xA0 SHL SUB DUP1 DUP5 AND PUSH1 0x0 DUP2 DUP2 MSTORE PUSH1 0x20 DUP2 DUP2 MSTORE PUSH1 0x40 SWAP2 DUP3 SWAP1 KECCAK256 SWAP5 SWAP1 SWAP5 SSTORE DUP1 MLOAD DUP6 DUP2 MSTORE SWAP1 MLOAD SWAP2 SWAP4 SWAP3 DUP8 AND SWAP3 PUSH32 0xDDF252AD1BE2C89B69C2B068FC378DAA952BA7F163C4A11628F55A4DF523B3EF SWAP3 SWAP2 DUP3 SWAP1 SUB ADD SWAP1 LOG3 POP POP POP JUMP JUMPDEST PUSH1 0x0 DUP2 DUP5 DUP5 GT ISZERO PUSH2 0x1FCA JUMPI PUSH1 0x40 MLOAD PUSH3 0x461BCD PUSH1 0xE5 SHL DUP2 MSTORE PUSH1 0x4 ADD DUP1 DUP1 PUSH1 0x20 ADD DUP3 DUP2 SUB DUP3 MSTORE DUP4 DUP2 DUP2 MLOAD DUP2 MSTORE PUSH1 0x20 ADD SWAP2 POP DUP1 MLOAD SWAP1 PUSH1 0x20 ADD SWAP1 DUP1 DUP4 DUP4 PUSH1 0x0 JUMPDEST DUP4 DUP2 LT ISZERO PUSH2 0x1F8F JUMPI DUP2 DUP2 ADD MLOAD DUP4 DUP3 ADD MSTORE PUSH1 0x20 ADD PUSH2 0x1F77 JUMP JUMPDEST POP POP POP POP SWAP1 POP SWAP1 DUP2 ADD SWAP1 PUSH1 0x1F AND DUP1 ISZERO PUSH2 0x1FBC JUMPI DUP1 DUP3 SUB DUP1 MLOAD PUSH1 0x1 DUP4 PUSH1 0x20 SUB PUSH2 0x100 EXP SUB NOT AND DUP2 MSTORE PUSH1 0x20 ADD SWAP2 POP JUMPDEST POP SWAP3 POP POP POP PUSH1 0x40 MLOAD DUP1 SWAP2 SUB SWAP1 REVERT JUMPDEST POP POP POP SWAP1 SUB SWAP1 JUMP JUMPDEST PUSH1 0x0 DUP3 PUSH2 0x1FE1 JUMPI POP PUSH1 0x0 PUSH2 0x9A2 JUMP JUMPDEST DUP3 DUP3 MUL DUP3 DUP5 DUP3 DUP2 PUSH2 0x1FEE JUMPI INVALID JUMPDEST DIV EQ PUSH2 0x202B JUMPI PUSH1 0x40 MLOAD PUSH3 0x461BCD PUSH1 0xE5 SHL DUP2 MSTORE PUSH1 0x4 ADD DUP1 DUP1 PUSH1 0x20 ADD DUP3 DUP2 SUB DUP3 MSTORE PUSH1 0x21 DUP2 MSTORE PUSH1 0x20 ADD DUP1 PUSH2 0x2775 PUSH1 0x21 SWAP2 CODECOPY PUSH1 0x40 ADD SWAP2 POP POP PUSH1 0x40 MLOAD DUP1 SWAP2 SUB SWAP1 REVERT JUMPDEST SWAP4 SWAP3 POP POP POP JUMP JUMPDEST PUSH1 0x0 PUSH2 0x202B DUP4 DUP4 PUSH1 0x40 MLOAD DUP1 PUSH1 0x40 ADD PUSH1 0x40 MSTORE DUP1 PUSH1 0x1A DUP2 MSTORE PUSH1 0x20 ADD PUSH32 0x536166654D6174683A206469766973696F6E206279207A65726F000000000000 DUP2 MSTORE POP PUSH2 0x24C5 JUMP JUMPDEST PUSH1 0x1 PUSH1 0x1 PUSH1 0xA0 SHL SUB DUP3 AND PUSH2 0x20B9 JUMPI PUSH1 0x40 MLOAD PUSH3 0x461BCD PUSH1 0xE5 SHL DUP2 MSTORE PUSH1 0x4 ADD DUP1 DUP1 PUSH1 0x20 ADD DUP3 DUP2 SUB DUP3 MSTORE PUSH1 0x21 DUP2 MSTORE PUSH1 0x20 ADD DUP1 PUSH2 0x27BE PUSH1 0x21 SWAP2 CODECOPY PUSH1 0x40 ADD SWAP2 POP POP PUSH1 0x40 MLOAD DUP1 SWAP2 SUB SWAP1 REVERT JUMPDEST PUSH2 0x20C5 DUP3 PUSH1 0x0 DUP4 PUSH2 0x19D1 JUMP JUMPDEST PUSH2 0x2108 DUP2 PUSH1 0x40 MLOAD DUP1 PUSH1 0x60 ADD PUSH1 0x40 MSTORE DUP1 PUSH1 0x22 DUP2 MSTORE PUSH1 0x20 ADD PUSH2 0x270B PUSH1 0x22 SWAP2 CODECOPY PUSH1 0x1 PUSH1 0x1 PUSH1 0xA0 SHL SUB DUP6 AND PUSH1 0x0 SWAP1 DUP2 MSTORE PUSH1 0x20 DUP2 SWAP1 MSTORE PUSH1 0x40 SWAP1 KECCAK256 SLOAD SWAP2 SWAP1 PUSH4 0xFFFFFFFF PUSH2 0x1F3B AND JUMP JUMPDEST PUSH1 0x1 PUSH1 0x1 PUSH1 0xA0 SHL SUB DUP4 AND PUSH1 0x0 SWAP1 DUP2 MSTORE PUSH1 0x20 DUP2 SWAP1 MSTORE PUSH1 0x40 SWAP1 KECCAK256 SSTORE PUSH1 0x2 SLOAD PUSH2 0x2134 SWAP1 DUP3 PUSH4 0xFFFFFFFF PUSH2 0x227C AND JUMP JUMPDEST PUSH1 0x2 SSTORE PUSH1 0x40 DUP1 MLOAD DUP3 DUP2 MSTORE SWAP1 MLOAD PUSH1 0x0 SWAP2 PUSH1 0x1 PUSH1 0x1 PUSH1 0xA0 SHL SUB DUP6 AND SWAP2 PUSH32 0xDDF252AD1BE2C89B69C2B068FC378DAA952BA7F163C4A11628F55A4DF523B3EF SWAP2 DUP2 SWAP1 SUB PUSH1 0x20 ADD SWAP1 LOG3 POP POP JUMP JUMPDEST PUSH1 0x0 PUSH2 0x2187 DUP3 PUSH2 0x1056 JUMP JUMPDEST SWAP1 POP DUP1 ISZERO PUSH2 0x8EF JUMPI PUSH2 0x2197 PUSH2 0x1434 JUMP JUMPDEST DUP2 GT ISZERO PUSH2 0x21A9 JUMPI PUSH2 0x21A6 PUSH2 0x1434 JUMP JUMPDEST SWAP1 POP JUMPDEST DUP1 ISZERO PUSH2 0x8EF JUMPI PUSH1 0x7 SLOAD PUSH1 0x40 DUP1 MLOAD PUSH4 0xF3FEF3A3 PUSH1 0xE0 SHL DUP2 MSTORE ADDRESS PUSH1 0x4 DUP3 ADD MSTORE PUSH1 0x24 DUP2 ADD DUP5 SWAP1 MSTORE SWAP1 MLOAD PUSH1 0x1 PUSH1 0x1 PUSH1 0xA0 SHL SUB SWAP1 SWAP3 AND SWAP2 PUSH4 0xF3FEF3A3 SWAP2 PUSH1 0x44 DUP1 DUP3 ADD SWAP3 PUSH1 0x0 SWAP3 SWAP1 SWAP2 SWAP1 DUP3 SWAP1 SUB ADD DUP2 DUP4 DUP8 DUP1 EXTCODESIZE ISZERO DUP1 ISZERO PUSH2 0x2202 JUMPI PUSH1 0x0 DUP1 REVERT JUMPDEST POP GAS CALL ISZERO DUP1 ISZERO PUSH2 0x2216 JUMPI RETURNDATASIZE PUSH1 0x0 DUP1 RETURNDATACOPY RETURNDATASIZE PUSH1 0x0 REVERT JUMPDEST POP POP POP POP PUSH2 0x8EF PUSH2 0x1BF0 JUMP JUMPDEST PUSH1 0x0 DUP3 DUP3 ADD DUP4 DUP2 LT ISZERO PUSH2 0x202B JUMPI PUSH1 0x40 DUP1 MLOAD PUSH3 0x461BCD PUSH1 0xE5 SHL DUP2 MSTORE PUSH1 0x20 PUSH1 0x4 DUP3 ADD MSTORE PUSH1 0x1B PUSH1 0x24 DUP3 ADD MSTORE PUSH32 0x536166654D6174683A206164646974696F6E206F766572666C6F770000000000 PUSH1 0x44 DUP3 ADD MSTORE SWAP1 MLOAD SWAP1 DUP2 SWAP1 SUB PUSH1 0x64 ADD SWAP1 REVERT JUMPDEST PUSH1 0x0 PUSH2 0x202B DUP4 DUP4 PUSH1 0x40 MLOAD DUP1 PUSH1 0x40 ADD PUSH1 0x40 MSTORE DUP1 PUSH1 0x1E DUP2 MSTORE PUSH1 0x20 ADD PUSH32 0x536166654D6174683A207375627472616374696F6E206F766572666C6F770000 DUP2 MSTORE POP PUSH2 0x1F3B JUMP JUMPDEST PUSH1 0x40 DUP1 MLOAD PUSH1 0x1 PUSH1 0x1 PUSH1 0xA0 SHL SUB DUP1 DUP7 AND PUSH1 0x24 DUP4 ADD MSTORE DUP5 AND PUSH1 0x44 DUP3 ADD MSTORE PUSH1 0x64 DUP1 DUP3 ADD DUP5 SWAP1 MSTORE DUP3 MLOAD DUP1 DUP4 SUB SWAP1 SWAP2 ADD DUP2 MSTORE PUSH1 0x84 SWAP1 SWAP2 ADD SWAP1 SWAP2 MSTORE PUSH1 0x20 DUP2 ADD DUP1 MLOAD PUSH1 0x1 PUSH1 0x1 PUSH1 0xE0 SHL SUB AND PUSH4 0x23B872DD PUSH1 0xE0 SHL OR SWAP1 MSTORE PUSH2 0xB38 SWAP1 DUP6 SWAP1 PUSH2 0x2414 JUMP JUMPDEST PUSH1 0x1 PUSH1 0x1 PUSH1 0xA0 SHL SUB DUP3 AND PUSH2 0x2373 JUMPI PUSH1 0x40 DUP1 MLOAD PUSH3 0x461BCD PUSH1 0xE5 SHL DUP2 MSTORE PUSH1 0x20 PUSH1 0x4 DUP3 ADD MSTORE PUSH1 0x1F PUSH1 0x24 DUP3 ADD MSTORE PUSH32 0x45524332303A206D696E7420746F20746865207A65726F206164647265737300 PUSH1 0x44 DUP3 ADD MSTORE SWAP1 MLOAD SWAP1 DUP2 SWAP1 SUB PUSH1 0x64 ADD SWAP1 REVERT JUMPDEST PUSH2 0x237F PUSH1 0x0 DUP4 DUP4 PUSH2 0x19D1 JUMP JUMPDEST PUSH1 0x2 SLOAD PUSH2 0x2392 SWAP1 DUP3 PUSH4 0xFFFFFFFF PUSH2 0x2222 AND JUMP JUMPDEST PUSH1 0x2 SSTORE PUSH1 0x1 PUSH1 0x1 PUSH1 0xA0 SHL SUB DUP3 AND PUSH1 0x0 SWAP1 DUP2 MSTORE PUSH1 0x20 DUP2 SWAP1 MSTORE PUSH1 0x40 SWAP1 KECCAK256 SLOAD PUSH2 0x23BE SWAP1 DUP3 PUSH4 0xFFFFFFFF PUSH2 0x2222 AND JUMP JUMPDEST PUSH1 0x1 PUSH1 0x1 PUSH1 0xA0 SHL SUB DUP4 AND PUSH1 0x0 DUP2 DUP2 MSTORE PUSH1 0x20 DUP2 DUP2 MSTORE PUSH1 0x40 DUP1 DUP4 KECCAK256 SWAP5 SWAP1 SWAP5 SSTORE DUP4 MLOAD DUP6 DUP2 MSTORE SWAP4 MLOAD SWAP3 SWAP4 SWAP2 SWAP3 PUSH32 0xDDF252AD1BE2C89B69C2B068FC378DAA952BA7F163C4A11628F55A4DF523B3EF SWAP3 DUP2 SWAP1 SUB SWAP1 SWAP2 ADD SWAP1 LOG3 POP POP JUMP JUMPDEST PUSH1 0x60 PUSH2 0x2469 DUP3 PUSH1 0x40 MLOAD DUP1 PUSH1 0x40 ADD PUSH1 0x40 MSTORE DUP1 PUSH1 0x20 DUP2 MSTORE PUSH1 0x20 ADD PUSH32 0x5361666545524332303A206C6F772D6C6576656C2063616C6C206661696C6564 DUP2 MSTORE POP DUP6 PUSH1 0x1 PUSH1 0x1 PUSH1 0xA0 SHL SUB AND PUSH2 0x252A SWAP1 SWAP3 SWAP2 SWAP1 PUSH4 0xFFFFFFFF AND JUMP JUMPDEST DUP1 MLOAD SWAP1 SWAP2 POP ISZERO PUSH2 0x19D1 JUMPI DUP1 DUP1 PUSH1 0x20 ADD SWAP1 MLOAD PUSH1 0x20 DUP2 LT ISZERO PUSH2 0x2488 JUMPI PUSH1 0x0 DUP1 REVERT JUMPDEST POP MLOAD PUSH2 0x19D1 JUMPI PUSH1 0x40 MLOAD PUSH3 0x461BCD PUSH1 0xE5 SHL DUP2 MSTORE PUSH1 0x4 ADD DUP1 DUP1 PUSH1 0x20 ADD DUP3 DUP2 SUB DUP3 MSTORE PUSH1 0x2A DUP2 MSTORE PUSH1 0x20 ADD DUP1 PUSH2 0x2828 PUSH1 0x2A SWAP2 CODECOPY PUSH1 0x40 ADD SWAP2 POP POP PUSH1 0x40 MLOAD DUP1 SWAP2 SUB SWAP1 REVERT JUMPDEST PUSH1 0x0 DUP2 DUP4 PUSH2 0x2514 JUMPI PUSH1 0x40 MLOAD PUSH3 0x461BCD PUSH1 0xE5 SHL DUP2 MSTORE PUSH1 0x20 PUSH1 0x4 DUP3 ADD DUP2 DUP2 MSTORE DUP4 MLOAD PUSH1 0x24 DUP5 ADD MSTORE DUP4 MLOAD SWAP1 SWAP3 DUP4 SWAP3 PUSH1 0x44 SWAP1 SWAP2 ADD SWAP2 SWAP1 DUP6 ADD SWAP1 DUP1 DUP4 DUP4 PUSH1 0x0 DUP4 ISZERO PUSH2 0x1F8F JUMPI DUP2 DUP2 ADD MLOAD DUP4 DUP3 ADD MSTORE PUSH1 0x20 ADD PUSH2 0x1F77 JUMP JUMPDEST POP PUSH1 0x0 DUP4 DUP6 DUP2 PUSH2 0x2520 JUMPI INVALID JUMPDEST DIV SWAP6 SWAP5 POP POP POP POP POP JUMP JUMPDEST PUSH1 0x60 PUSH2 0x2539 DUP5 DUP5 PUSH1 0x0 DUP6 PUSH2 0x2541 JUMP JUMPDEST SWAP5 SWAP4 POP POP POP POP JUMP JUMPDEST PUSH1 0x60 PUSH2 0x254C DUP6 PUSH2 0x26AE JUMP JUMPDEST PUSH2 0x259D JUMPI PUSH1 0x40 DUP1 MLOAD PUSH3 0x461BCD PUSH1 0xE5 SHL DUP2 MSTORE PUSH1 0x20 PUSH1 0x4 DUP3 ADD MSTORE PUSH1 0x1D PUSH1 0x24 DUP3 ADD MSTORE PUSH32 0x416464726573733A2063616C6C20746F206E6F6E2D636F6E7472616374000000 PUSH1 0x44 DUP3 ADD MSTORE SWAP1 MLOAD SWAP1 DUP2 SWAP1 SUB PUSH1 0x64 ADD SWAP1 REVERT JUMPDEST PUSH1 0x0 PUSH1 0x60 DUP7 PUSH1 0x1 PUSH1 0x1 PUSH1 0xA0 SHL SUB AND DUP6 DUP8 PUSH1 0x40 MLOAD DUP1 DUP3 DUP1 MLOAD SWAP1 PUSH1 0x20 ADD SWAP1 DUP1 DUP4 DUP4 JUMPDEST PUSH1 0x20 DUP4 LT PUSH2 0x25DC JUMPI DUP1 MLOAD DUP3 MSTORE PUSH1 0x1F NOT SWAP1 SWAP3 ADD SWAP2 PUSH1 0x20 SWAP2 DUP3 ADD SWAP2 ADD PUSH2 0x25BD JUMP JUMPDEST PUSH1 0x1 DUP4 PUSH1 0x20 SUB PUSH2 0x100 EXP SUB DUP1 NOT DUP3 MLOAD AND DUP2 DUP5 MLOAD AND DUP1 DUP3 OR DUP6 MSTORE POP POP POP POP POP POP SWAP1 POP ADD SWAP2 POP POP PUSH1 0x0 PUSH1 0x40 MLOAD DUP1 DUP4 SUB DUP2 DUP6 DUP8 GAS CALL SWAP3 POP POP POP RETURNDATASIZE DUP1 PUSH1 0x0 DUP2 EQ PUSH2 0x263E JUMPI PUSH1 0x40 MLOAD SWAP2 POP PUSH1 0x1F NOT PUSH1 0x3F RETURNDATASIZE ADD AND DUP3 ADD PUSH1 0x40 MSTORE RETURNDATASIZE DUP3 MSTORE RETURNDATASIZE PUSH1 0x0 PUSH1 0x20 DUP5 ADD RETURNDATACOPY PUSH2 0x2643 JUMP JUMPDEST PUSH1 0x60 SWAP2 POP JUMPDEST POP SWAP2 POP SWAP2 POP DUP2 ISZERO PUSH2 0x2657 JUMPI SWAP2 POP PUSH2 0x2539 SWAP1 POP JUMP JUMPDEST DUP1 MLOAD ISZERO PUSH2 0x2667 JUMPI DUP1 MLOAD DUP1 DUP3 PUSH1 0x20 ADD REVERT JUMPDEST PUSH1 0x40 MLOAD PUSH3 0x461BCD PUSH1 0xE5 SHL DUP2 MSTORE PUSH1 0x20 PUSH1 0x4 DUP3 ADD DUP2 DUP2 MSTORE DUP7 MLOAD PUSH1 0x24 DUP5 ADD MSTORE DUP7 MLOAD DUP8 SWAP4 SWAP2 SWAP3 DUP4 SWAP3 PUSH1 0x44 ADD SWAP2 SWAP1 DUP6 ADD SWAP1 DUP1 DUP4 DUP4 PUSH1 0x0 DUP4 ISZERO PUSH2 0x1F8F JUMPI DUP2 DUP2 ADD MLOAD DUP4 DUP3 ADD MSTORE PUSH1 0x20 ADD PUSH2 0x1F77 JUMP JUMPDEST PUSH1 0x0 DUP2 EXTCODEHASH PUSH32 0xC5D2460186F7233C927E7DB2DCC703C0E500B653CA82273B7BFAD8045D85A470 DUP2 DUP2 EQ DUP1 ISZERO SWAP1 PUSH2 0x2539 JUMPI POP POP ISZERO ISZERO SWAP3 SWAP2 POP POP JUMP INVALID GASLIMIT MSTORE NUMBER ORIGIN ADDRESS GASPRICE KECCAK256 PUSH21 0x72616E7366657220746F20746865207A65726F2061 PUSH5 0x6472657373 GASLIMIT MSTORE NUMBER ORIGIN ADDRESS GASPRICE KECCAK256 PUSH3 0x75726E KECCAK256 PUSH2 0x6D6F PUSH22 0x6E7420657863656564732062616C616E636545524332 ADDRESS GASPRICE KECCAK256 PUSH2 0x7070 PUSH19 0x6F766520746F20746865207A65726F20616464 PUSH19 0x65737345524332303A207472616E7366657220 PUSH2 0x6D6F PUSH22 0x6E7420657863656564732062616C616E636553616665 0x4D PUSH2 0x7468 GASPRICE KECCAK256 PUSH14 0x756C7469706C69636174696F6E20 PUSH16 0x766572666C6F7745524332303A207472 PUSH2 0x6E73 PUSH7 0x657220616D6F75 PUSH15 0x74206578636565647320616C6C6F77 PUSH2 0x6E63 PUSH6 0x45524332303A KECCAK256 PUSH3 0x75726E KECCAK256 PUSH7 0x726F6D20746865 KECCAK256 PUSH27 0x65726F206164647265737345524332303A207472616E7366657220 PUSH7 0x726F6D20746865 KECCAK256 PUSH27 0x65726F206164647265737345524332303A20617070726F76652066 PUSH19 0x6F6D20746865207A65726F2061646472657373 MSTORE8 PUSH2 0x6665 GASLIMIT MSTORE NUMBER ORIGIN ADDRESS GASPRICE KECCAK256 GASLIMIT MSTORE NUMBER ORIGIN ADDRESS KECCAK256 PUSH16 0x7065726174696F6E20646964206E6F74 KECCAK256 PUSH20 0x75636365656445524332303A2064656372656173 PUSH6 0x6420616C6C6F PUSH24 0x616E63652062656C6F77207A65726FA26469706673582212 KECCAK256 0x2A 0xCF CALL CODECOPY 0x26 DUP14 0xCC JUMP 0x2B 0xC7 0xB7 0xBA PUSH32 0xD06F033DCE949F23F284D45892AF3508989A4764736F6C634300060200330000 ",
  "sha1": "35d605ccea6ca1f8111abfb5fcac0a55ee5aa1cc",
  "source": "// SPDX-License-Identifier: MIT\npragma solidity ^0.6.2;\n\nimport \"@openzeppelin/contracts/token/ERC20/IERC20.sol\";\nimport \"@openzeppelin/contracts/math/SafeMath.sol\";\nimport \"@openzeppelin/contracts/utils/Address.sol\";\nimport \"@openzeppelin/contracts/token/ERC20/SafeERC20.sol\";\nimport \"@openzeppelin/contracts/token/ERC20/ERC20.sol\";\nimport \"@openzeppelin/contracts/GSN/Context.sol\";\n\nimport \"../IController.sol\";\n\nimport \"../../interfaces/Aave.sol\";\n\ncontract yDelegatedVault is ERC20 {\n    using SafeERC20 for IERC20;\n    using Address for address;\n    using SafeMath for uint256;\n\n    IERC20 public token;\n\n    address public governance;\n    address public controller;\n    uint public insurance;\n    uint public healthFactor = 4;\n\n    uint public ltv = 65;\n    uint public max = 100;\n\n    address public constant aave = address(0x24a42fD28C976A61Df5D00D0599C34c4f90748c8);\n\n    constructor (address _token, address _controller) public ERC20(\n        string(abi.encodePacked(\"yearn \", ERC20(_token).name())),\n        string(abi.encodePacked(\"y\", ERC20(_token).symbol()))\n    ) {\n        _setupDecimals(ERC20(_token).decimals());\n        token = IERC20(_token);\n        governance = msg.sender;\n        controller = _controller;\n    }\n\n    function debt() public view returns (uint) {\n        address _reserve = IController(controller).want(address(this));\n        (,uint currentBorrowBalance,,,,,,,,) = Aave(getAave()).getUserReserveData(_reserve, address(this));\n        return currentBorrowBalance;\n    }\n\n    function credit() public view returns (uint) {\n        return IController(controller).balanceOf(address(this));\n    }\n\n    // % of tokens locked and cannot be withdrawn per user\n    // this is impermanent locked, unless the debt out accrues the strategy\n    function locked() public view returns (uint) {\n        return credit().mul(1e18).div(debt());\n    }\n\n    function debtShare(address _lp) public view returns (uint) {\n        return debt().mul(balanceOf(_lp)).mul(totalSupply());\n    }\n\n    function getAave() public view returns (address) {\n        return LendingPoolAddressesProvider(aave).getLendingPool();\n    }\n\n    function getAaveCore() public view returns (address) {\n        return LendingPoolAddressesProvider(aave).getLendingPoolCore();\n    }\n\n    function setHealthFactor(uint _hf) external {\n        require(msg.sender == governance, \"!governance\");\n        healthFactor = _hf;\n    }\n\n    function activate() public {\n        Aave(getAave()).setUserUseReserveAsCollateral(underlying(), true);\n    }\n\n    function repay(address reserve, uint amount) public  {\n        // Required for certain stable coins (USDT for example)\n        IERC20(reserve).approve(address(getAaveCore()), 0);\n        IERC20(reserve).approve(address(getAaveCore()), amount);\n        Aave(getAave()).repay(reserve, amount, address(uint160(address(this))));\n    }\n\n    function repayAll() public {\n        address _reserve = reserve();\n        uint _amount = IERC20(_reserve).balanceOf(address(this));\n        repay(_reserve, _amount);\n    }\n\n    // Used to swap any borrowed reserve over the debt limit to liquidate to 'token'\n    function harvest(address reserve, uint amount) external {\n        require(msg.sender == controller, \"!controller\");\n        require(reserve != address(token), \"token\");\n        IERC20(reserve).safeTransfer(controller, amount);\n    }\n\n    // Ignore insurance fund for balance calculations\n    function balance() public view returns (uint) {\n        return token.balanceOf(address(this)).sub(insurance);\n    }\n\n    function setGovernance(address _governance) external {\n      require(msg.sender == governance, \"!governance\");\n      governance = _governance;\n    }\n\n    function setController(address _controller) external {\n        require(msg.sender == governance, \"!governance\");\n        controller = _controller;\n    }\n\n    function getAaveOracle() public view returns (address) {\n        return LendingPoolAddressesProvider(aave).getPriceOracle();\n    }\n\n    function getReservePriceETH(address reserve) public view returns (uint) {\n        return Oracle(getAaveOracle()).getAssetPrice(reserve);\n    }\n\n    function shouldRebalance() external view returns (bool) {\n        return (over() > 0);\n    }\n\n    function over() public view returns (uint) {\n        over(0);\n    }\n\n    function getUnderlyingPriceETH(uint _amount) public view returns (uint) {\n        _amount = _amount.mul(getUnderlyingPrice()).div(uint(10)**ERC20(address(token)).decimals()); // Calculate the amount we are withdrawing in ETH\n        return _amount.mul(ltv).div(max).div(healthFactor);\n    }\n\n    function over(uint _amount) public view returns (uint) {\n        address _reserve = reserve();\n        uint _eth = getUnderlyingPriceETH(_amount);\n        (uint _maxSafeETH,uint _totalBorrowsETH,) = maxSafeETH();\n        _maxSafeETH = _maxSafeETH.mul(105).div(100); // 5% buffer so we don't go into a earn/rebalance loop\n        if (_eth > _maxSafeETH) {\n            _maxSafeETH = 0;\n        } else {\n            _maxSafeETH = _maxSafeETH.sub(_eth); // Add the ETH we are withdrawing\n        }\n        if (_maxSafeETH < _totalBorrowsETH) {\n            uint _over = _totalBorrowsETH.mul(_totalBorrowsETH.sub(_maxSafeETH)).div(_totalBorrowsETH);\n            _over = _over.mul(uint(10)**ERC20(_reserve).decimals()).div(getReservePrice());\n            return _over;\n        } else {\n            return 0;\n        }\n    }\n\n    function _rebalance(uint _amount) internal {\n        uint _over = over(_amount);\n        if (_over > 0) {\n            if (_over > credit()) {\n                _over = credit();\n            }\n            if (_over > 0) {\n                IController(controller).withdraw(address(this), _over);\n                repayAll();\n            }\n        }\n    }\n\n    function rebalance() external {\n        _rebalance(0);\n    }\n\n    function claimInsurance() external {\n        require(msg.sender == controller, \"!controller\");\n        token.safeTransfer(controller, insurance);\n        insurance = 0;\n    }\n\n    function maxSafeETH() public view returns (uint maxBorrowsETH, uint totalBorrowsETH, uint availableBorrowsETH) {\n         (,,uint _totalBorrowsETH,,uint _availableBorrowsETH,,,) = Aave(getAave()).getUserAccountData(address(this));\n        uint _maxBorrowETH = (_totalBorrowsETH.add(_availableBorrowsETH));\n        return (_maxBorrowETH.div(healthFactor), _totalBorrowsETH, _availableBorrowsETH);\n    }\n\n    function shouldBorrow() external view returns (bool) {\n        return (availableToBorrowReserve() > 0);\n    }\n\n    function availableToBorrowETH() public view returns (uint) {\n        (uint _maxSafeETH,uint _totalBorrowsETH, uint _availableBorrowsETH) = maxSafeETH();\n        _maxSafeETH = _maxSafeETH.mul(95).div(100); // 5% buffer so we don't go into a earn/rebalance loop\n        if (_maxSafeETH > _totalBorrowsETH) {\n            return _availableBorrowsETH.mul(_maxSafeETH.sub(_totalBorrowsETH)).div(_availableBorrowsETH);\n        } else {\n            return 0;\n        }\n    }\n\n    function availableToBorrowReserve() public view returns (uint) {\n        address _reserve = reserve();\n        uint _available = availableToBorrowETH();\n        if (_available > 0) {\n            return _available.mul(uint(10)**ERC20(_reserve).decimals()).div(getReservePrice());\n        } else {\n            return 0;\n        }\n    }\n\n    function getReservePrice() public view returns (uint) {\n        return getReservePriceETH(reserve());\n    }\n\n    function getUnderlyingPrice() public view returns (uint) {\n        return getReservePriceETH(underlying());\n    }\n\n    function earn() external {\n        address _reserve = reserve();\n        uint _borrow = availableToBorrowReserve();\n        if (_borrow > 0) {\n            Aave(getAave()).borrow(_reserve, _borrow, 2, 7);\n        }\n        //rebalance here\n        uint _balance = IERC20(_reserve).balanceOf(address(this));\n        if (_balance > 0) {\n            IERC20(_reserve).safeTransfer(controller, _balance);\n            IController(controller).earn(address(this), _balance);\n        }\n    }\n\n    function depositAll() external {\n        deposit(token.balanceOf(msg.sender));\n    }\n\n    function deposit(uint _amount) public {\n        uint _pool = balance();\n        token.safeTransferFrom(msg.sender, address(this), _amount);\n\n        // 0.5% of deposits go into an insurance fund incase of negative profits to protect withdrawals\n        // At a 4 health factor, this is a -2% position\n        uint _insurance = _amount.mul(50).div(10000);\n        _amount = _amount.sub(_insurance);\n        insurance = insurance.add(_insurance);\n\n\n        //Controller can claim insurance to liquidate to cover interest\n\n        uint shares = 0;\n        if (totalSupply() == 0) {\n            shares = _amount;\n        } else {\n            shares = (_amount.mul(totalSupply())).div(_pool);\n        }\n        _mint(msg.sender, shares);\n    }\n\n    function reserve() public view returns (address) {\n        return IController(controller).want(address(this));\n    }\n\n    function underlying() public view returns (address) {\n        return AaveToken(address(token)).underlyingAssetAddress();\n    }\n\n    function withdrawAll() public {\n        withdraw(balanceOf(msg.sender));\n    }\n\n    // No rebalance implementation for lower fees and faster swaps\n    function withdraw(uint _shares) public {\n        uint r = (balance().mul(_shares)).div(totalSupply());\n        _burn(msg.sender, _shares);\n        _rebalance(r);\n        token.safeTransfer(msg.sender, r);\n    }\n\n    function getPricePerFullShare() external view returns (uint) {\n        return balance().mul(1e18).div(totalSupply());\n    }\n}\n",
  "sourcePath": "contracts/vaults/yDelegatedVault.sol",
  "type": "contract"
}